:020000040800F2
:1000000000000C20310F00081D1B0008251B0008F4
:100010002D1B0008351B00083D1B0008810F000840
:10002000000000000000000000000000451B000868
:10003000531B000800000000611B00086F1B000834
:10004000810F0008810F0008810F0008810F000850
:10005000810F0008810F0008810F0008810F000840
:10006000810F0008810F0008810F0008810F000830
:10007000810F0008810F0008810F0008810F000820
:10008000810F0008810F0008810F0008810F000810
:10009000810F0008810F00087D1B0008810F0008F8
:1000A000991B0008810F0008810F0008810F0008CC
:1000B000810F0008810F0008810F0008810F0008E0
:1000C000810F0008810F0008810F0008810F0008D0
:1000D000810F0008810F0008810F0008810F0008C0
:1000E000810F0008810F0008810F0008810F0008B0
:1000F000810F0008810F0008810F0008810F0008A0
:10010000810F0008810F0008810F0008810F00088F
:10011000810F0008810F0008810F0008810F00087F
:10012000810F0008810F0008810F0008810F00086F
:10013000810F0008810F0008810F0008810F00085F
:10014000810F0008810F0008810F0008810F00084F
:10015000810F0008810F0008810F0008810F00083F
:10016000810F0008810F0008810F0008810F00082F
:10017000810F0008810F0008810F0008810F00081F
:10018000810F0008810F0008810F0008810F00080F
:10019000810F0008810F0008810F0008810F0008FF
:1001A000810F0008810F0008810F0008810F0008EF
:1001B000810F0008810F0008810F0008810F0008DF
:1001C000810F0008810F0008810F0008810F0008CF
:1001D000810F0008810F0008810F0008810F0008BF
:1001E000810F0008810F0008810F0008810F0008AF
:1001F000810F0008810F0008810F0008810F00089F
:10020000810F0008810F0008810F0008810F00088E
:10021000810F0008810F0008810F0008810F00087E
:10022000810F0008810F0008810F0008810F00086E
:08023000810F0008810F000896
:1002380010B5054C237833B9044B13B10448AFF318
:1002480000800123237010BDC00F002000000000B3
:100258009CE0000808B5034B1BB103490348AFF302
:10026800008008BD00000000C40F00209CE00008CA
:10027800034613F8012B002AFBD1181A01387047DE
:1002880081F0004102E000BF83F0004330B54FEA3F
:1002980041044FEA430594EA050F08BF90EA020FAC
:1002A8001FBF54EA000C55EA020C7FEA645C7FEA3F
:1002B800655C00F0E2804FEA5454D4EB5555B8BF62
:1002C8006D420CDD2C4480EA020281EA030382EAD3
:1002D800000083EA010180EA020281EA0303362D65
:1002E80088BF30BD11F0004F4FEA01314FF4801C38
:1002F8004CEA113102D0404261EB410113F0004F4A
:100308004FEA03334CEA133302D0524263EB430300
:1003180094EA050F00F0A780A4F10104D5F1200E9E
:100328000DDB02FA0EFC22FA05F2801841F10001F9
:1003380003FA0EF2801843FA05F359410EE0A5F1CD
:1003480020050EF1200E012A03FA0EFC28BF4CF0FE
:10035800020C43FA05F3C01851EBE37101F00045B4
:1003680007D54FF0000EDCF1000C7EEB00006EEBC1
:100378000101B1F5801F1BD3B1F5001F0CD349084B
:100388005FEA30004FEA3C0C04F101044FEA4452A2
:1003980012F5800F80F09A80BCF1004F08BF5FEA29
:1003A800500C50F1000041EB045141EA050130BD09
:1003B8005FEA4C0C404141EB0101013C28BFB1F51B
:1003C800801FE9D291F0000F04BF01460020B1FA66
:1003D80081F308BF2033A3F10B03B3F120020CDA39
:1003E8000C3208DD02F1140CC2F10C0201FA0CF017
:1003F80021FA02F10CE002F11402D8BFC2F1200C7C
:1004080001FA02F120FA0CFCDCBF41EA0C01904031
:10041800E41AA2BF01EB0451294330BD6FEA04047A
:100428001F3C1CDA0C340EDC04F11404C4F1200265
:1004380020FA04F001FA02F340EA030021FA04F377
:1004480045EA030130BDC4F10C04C4F1200220FACE
:1004580002F001FA04F340EA0300294630BD21FA0C
:1004680004F0294630BD94F0000F83F4801306BFD2
:1004780081F480110134013D4EE77FEA645C18BFC6
:100488007FEA655C29D094EA050F08BF90EA020F5D
:1004980005D054EA000C04BF1946104630BD91EA55
:1004A800030F1EBF0021002030BD5FEA545C05D158
:1004B8004000494128BF41F0004130BD14F5800497
:1004C8003CBF01F5801130BD01F0004545F0FE410B
:1004D80041F470014FF0000030BD7FEA645C1ABF40
:1004E800194610467FEA655C1CBF0B46024650EA77
:1004F800013406BF52EA033591EA030F41F40021A3
:1005080030BD00BF90F0000F04BF0021704730B528
:100518004FF4806404F132044FF000054FF00001FD
:1005280050E700BF90F0000F04BF0021704730B5BE
:100538004FF4806404F1320410F0004548BF404293
:100548004FF000013EE700BF42004FEAE2014FEAE8
:1005580031014FEA02701FBF12F07F4393F07F4FC3
:1005680081F06051704732F07F4208BF704793F0C6
:100578007F4F04BF41F40021704730B54FF46074D9
:1005880001F0004521F000411CE700BF50EA0102DC
:1005980008BF704730B54FF000050AE050EA010285
:1005A80008BF704730B511F0004502D5404261EBF5
:1005B80041014FF4806404F132045FEA915C3FF436
:1005C800D8AE4FF003025FEADC0C18BF03325FEAD3
:1005D800DC0C18BF033202EBDC02C2F1200300FA84
:1005E80003FC20FA02F001FA03FE40EA0E0021FAA9
:1005F80002F11444BDE600BF70B54FF0FF0C4CF497
:10060800E06C1CEA11541DBF1CEA135594EA0C0F48
:1006180095EA0C0F00F0DEF82C4481EA030621EA83
:100628004C5123EA4C5350EA013518BF52EA0335BE
:1006380041F4801143F4801338D0A0FB02CE4FF070
:100648000005E1FB02E506F00042E0FB03E54FF0A0
:100658000006E1FB03569CF0000F18BF4EF0010E98
:10066800A4F1FF04B6F5007F64F5407404D25FEA94
:100678004E0E6D4146EB060642EAC62141EA555147
:100688004FEAC52040EA5E504FEACE2EB4F1FD0C89
:1006980088BFBCF5E06F1ED8BEF1004F08BF5FEA07
:1006A800500E50F1000041EB045170BD06F00046B9
:1006B80046EA010140EA020081EA0301B4EB5C0466
:1006C800C2BFD4EB0C0541EA045170BD41F480115E
:1006D8004FF0000E013C00F3AB8014F1360FDEBF83
:1006E800002001F0004170BDC4F10004203C35DA5F
:1006F8000C341BDC04F11404C4F1200500FA05F3E2
:1007080020FA04F001FA05F240EA020001F0004282
:1007180021F0004110EBD37021FA04F642EB0601F8
:100728005EEA430E08BF20EAD37070BDC4F10C0422
:10073800C4F1200500FA04F320FA05F001FA04F2E6
:1007480040EA020001F0004110EBD37041F10001D2
:100758005EEA430E08BF20EAD37070BDC4F12005DD
:1007680000FA05F24EEA020E20FA04F301FA05F245
:1007780043EA020321FA04F001F0004121FA04F2ED
:1007880020EA020000EBD3705EEA430E08BF20EABD
:10079800D37070BD94F0000F0FD101F000464000F7
:1007A80041EB010111F4801F08BF013CF7D041EA79
:1007B800060195F0000F18BF704703F0004652007D
:1007C80043EB030313F4801F08BF013DF7D043EA4E
:1007D8000603704794EA0C0F0CEA135518BF95EA04
:1007E8000C0F0CD050EA410618BF52EA4306D1D18B
:1007F80081EA030101F000414FF0000070BD50EAAA
:10080800410606BF1046194652EA430619D094EA33
:100818000C0F02D150EA013613D195EA0C0F05D11D
:1008280052EA03361CBF104619460AD181EA030171
:1008380001F0004141F0FE4141F470014FF0000029
:1008480070BD41F0FE4141F4780170BD70B54FF0C4
:10085800FF0C4CF4E06C1CEA11541DBF1CEA135544
:1008680094EA0C0F95EA0C0F00F0A7F8A4EB050426
:1008780081EA030E52EA03354FEA013100F088801D
:100888004FEA03334FF0805545EA131343EA1263E6
:100898004FEA022245EA111545EA10654FEA00269B
:1008A8000EF000419D4208BF964244F1FD0404F554
:1008B800407402D25B084FEA3202B61A65EB0305B0
:1008C8005B084FEA32024FF480104FF4002CB6EB6D
:1008D800020E75EB030E22BFB61A754640EA0C00ED
:1008E8005B084FEA3202B6EB020E75EB030E22BF2D
:1008F800B61A754640EA5C005B084FEA3202B6EB6E
:10090800020E75EB030E22BFB61A754640EA9C002C
:100918005B084FEA3202B6EB020E75EB030E22BFFC
:10092800B61A754640EADC0055EA060E18D04FEABA
:10093800051545EA16754FEA06164FEAC30343EA5A
:1009480052734FEAC2025FEA1C1CC0D111F4801F27
:100958000BD141EA00014FF000004FF0004CB6E720
:1009680011F4801F04BF01430020B4F1FD0C88BFBF
:10097800BCF5E06F3FF6AFAEB5EB030C04BFB6EBCA
:10098800020C5FEA500C50F1000041EB045170BDBD
:100998000EF0004E4EEA113114EB5C04C2BFD4EBEA
:1009A8000C0541EA045170BD41F480114FF0000E6E
:1009B800013C90E645EA060E8DE60CEA135594EAEA
:1009C8000C0F08BF95EA0C0F3FF43BAF94EA0C0FED
:1009D8000AD150EA01347FF434AF95EA0C0F7FF462
:1009E80025AF104619462CE795EA0C0F06D152EAB6
:1009F80003353FF4FDAE1046194622E750EA41069A
:100A080018BF52EA43067FF4C5AE50EA41047FF4AA
:100A18000DAF52EA43057FF4EBAE12E74FF0FF3C0F
:100A280006E000BF4FF0010C02E000BF4FF0010CE0
:100A38004DF804CD4FEA410C7FEA6C5C4FEA430C59
:100A480018BF7FEA6C5C1BD001B050EA410C0CBFA8
:100A580052EA430C91EA030F02BF90EA020F00200A
:100A6800704710F1000F91EA030F58BF994208BF71
:100A780090422CBFD8176FEAE37040F0010070472E
:100A88004FEA410C7FEA6C5C02D150EA013C07D185
:100A98004FEA430C7FEA6C5CD6D152EA033CD3D0D0
:100AA8005DF8040B704700BF8446104662468C46CA
:100AB8001946634600E000BF01B5FFF7B7FF0028FD
:100AC80048BF10F1000F01BD4DF808EDFFF7F4FF26
:100AD8000CBF012000205DF808FB00BF4DF808EDB1
:100AE800FFF7EAFF34BF012000205DF808FB00BFD4
:100AF8004DF808EDFFF7E0FF94BF012000205DF8F6
:100B080008FB00BF4DF808EDFFF7CEFF94BF0120AA
:100B180000205DF808FB00BF4DF808EDFFF7C4FFA3
:100B280034BF012000205DF808FB00BF4FEA410CEC
:100B38007FEA6C5C02D150EA013C0AD14FEA430CCF
:100B48007FEA6C5C02D152EA033C02D14FF000000C
:100B580070474FF0010070474FEA410212F500124A
:100B680015D211D56FF47873B3EB625212D94FEAEC
:100B7800C12343F0004343EA505311F0004F23FAD6
:100B880002F018BF404270474FF00000704750EA2B
:100B9800013005D111F0004008BF6FF000407047E8
:100BA8004FF00000704700BF53B94AB9002908BF89
:100BB80000281CBF4FF0FF314FF0FF3000F0B2B9F2
:100BC800ADF1080C6DE904CE00F006F8DDF804E09C
:100BD800DDE9022304B070472DE9F04F8C46099EE9
:100BE80004460F46002B48D18A4215465ED9B2FA10
:100BF80082F33BB1C3F120029F409D409C4020FA04
:100C080002F217434FEA154E1FFA85FC220CB7FB78
:100C1800FEF10EFB117701FB0CF042EA074290420D
:100C280007D9AA1801F1FF3702D2904200F2588181
:100C38003946121AA4B2B2FBFEF00EFB102200FBDA
:100C48000CFC44EA0244A4450BD92C1900F1FF32EC
:100C58002CBF01270027A44502D9002F00F04381AB
:100C6800104640EA0140A4EB0C0400211EB1DC4010
:100C78000023C6E90043BDE8F08F8B4206D90EB1C8
:100C8800C6E9000100210846BDE8F08FB3FA83F1F8
:100C9800002951D16345C0F01681824240F2138188
:100CA8000846002EE7D0C6E90047E4E7002A00F02E
:100CB800AF80B2FA82F3002B40F0C2808A1A4FEA62
:100CC800154EAFB20121200CB2FBFEFC0EFB1C221C
:100CD80040EA024207FB0CF090420ED9AA180CF128
:100CE800FF382CBF4FF001094FF00009904203D99B
:100CF800B9F1000F00F0F080C446121AA4B2B2FB9A
:100D0800FEF00EFB102200FB07F744EA0244A7425C
:100D18000ED92C1900F1FF322CBF4FF0010E4FF005
:100D2800000EA74203D9BEF1000F00F0D280104692
:100D3800E41B40EA0C4099E7C1F120058B400CFA0E
:100D480001F400FA01F922FA05F72CFA05FC8A40A9
:100D58001F4320FA05F3380C23431FFA87FE1C0CA7
:100D6800BCFBF0F800FB18CC44EA0C4408FB0EFC72
:100D7800A4450ED93C1908F1FF3A2CBF4FF0010BDE
:100D88004FF0000BA44503D9BBF1000F00F0B88069
:100D9800D046A4EB0C041FFA83FCB4FBF0F300FB71
:100DA800134403FB0EFE4CEA0444A6450ED93C1935
:100DB80003F1FF302CBF4FF0010C4FF0000CA6459B
:100DC80003D9BCF1000F00F09F80034643EA0840B6
:100DD800A4EB0E04A0FB02EC64457346E04602D384
:100DE80007D1F14505D2BEEB02036CEB070C0138C5
:100DF800E0465EB1B9EB030264EB080404FA05F5BA
:100E080022FA01F3CC401D43C6E90054002132E721
:100E180042082F464B08AC4642EAC172AE46C407A8
:100E2800110C92B241EA034142EA0142B1FBF5F1E9
:100E3800B3FBF5F01F23A2EB0C0241EA004142E7A5
:100E48009D40C3F1200299409C402CFA02FC4FEAD5
:100E5800154E20FA02F2AFB2BCFBFEF80A430EFBB5
:100E680018CC110C41EA0C4108FB07FC8C4550D901
:100E7800691808F1FF302CBF4FF001094FF0000945
:100E88008C4502D9B9F1000F30D0A1EB0C01B1FBB0
:100E9800FEF808FB07FC0EFB181192B242EA014269
:100EA800624534D2AA1808F1FF312CBF4FF001096E
:100EB8004FF000096245BED2B9F1000FBBD1A8F1CD
:100EC80002012A44B7E7841A6CEB03020120174693
:100ED800E7E62C4402382BE7ACF1020C2A440CE775
:100EE80002392A44A5E62C440238BAE6A5EB0C0CD4
:100EF800A8F102006144B1FBFEF808FB07FCCAE751
:100F0800A8F102083C4444E7023B3C445EE7414602
:100F180091E7A1EB0C014046B1FBFEF808FB07FC8A
:100F2800B9E700BF704700BFDFF834D003F0AEF96F
:100F3800002103E00B4B5B58435004310A480B4B2C
:100F480042189A42F6D30A4A02E0002342F8043BC8
:100F5800084B9A42F9D30BF0DDF800F037FCFEE7B6
:100F680000000C204C6C020800000020E401002066
:100F7800C00F002024150020FEE7000080B582B0D5
:100F880000AF374B374A1A60354B374A5A60344BF3
:100F9800364A9A60324B364ADA6000F03CF90A2049
:100FA80000F02EF933492E4802F077FD314B1B78BB
:100FB8006B2B07D02F4B1B7819462F480AF00CFFD4
:100FC80000BFFDE70121264802F078FD2B4924489F
:100FD80002F09AFD294B1B78002BF7D101212048FC
:100FE80002F0E9FC01211E4802F0A4FB03211C4881
:100FF80002F09AF803211A4802F02CFA0221184844
:1010080002F06CF80821164802F0FEF90121144894
:1010180002F01DFD0021124802F0FAFF00211048DD
:1010280003F01CF83B4619460D4802F099FF3B783F
:1010380043F001033B703B7843F002033B703B46AF
:101048001946074802F0DCFD0421054802F0A0FD1E
:101058000121034802F076FD00BF0837BD4680BD78
:101068000C100020B1110008DD1100080912000859
:101078002010002008100020B8E000080910002007
:1010880080B582B000AFFB1D1946404802F078FBDE
:10109800FB79002B29D0062200213D480AF0E2FF07
:1010A8003B493A4802F03AFC394BB3F9003018464C
:1010B80001F0C8FFF0EE407A364BC3ED007A344BAE
:1010C800B3F90230184601F0BDFFF0EE407A314B1B
:1010D800C3ED017A2E4BB3F90430184601F0B2FF84
:1010E800F0EE407A2B4BC3ED027AFB1D19462748D8
:1010F80002F064FBFB79002B29D006220021264848
:101108000AF0B0FF2449214802F0BBFB224BB3F997
:101118000030184601F0AEFFF0EE407A1F4BC3EDE9
:10112800007A1D4BB3F90230184601F0A3FFF0EE28
:10113800407A1A4BC3ED017A174BB3F904301846BD
:1011480001F098FFF0EE407A144BC3ED027AFB1DD4
:1011580019460E4802F050FBFB79002B11D0104BBA
:1011680000221A800E49094802F064FB0C4BB3F9BF
:101178000030184601F096FFF0EE407A094BC3EDB7
:10118800007A00BF0837BD4680BD00BF0C100020A4
:10119800DC0F0020EC0F0020E40F0020F80F0020E7
:1011A800EA0F00200410002080B584B000AFF8607A
:1011B8007A601A460B46FB7213463B81FB7A99B25A
:1011C8003B897A68D72000F087F80346184610371D
:1011D800BD4680BD80B584B000AFF8607A601A461D
:1011E8000B46FB7213463B81FB7A99B23B897A68BE
:1011F800D72000F0A3F8034618461037BD4680BD37
:1012080080B582B000AF7860786803F03DF900BF20
:101218000837BD4680BD80B400AF00BFBD465DF84D
:10122800047B704780B582B000AF00237B60194B08
:10123800194A1A60194B1B685A1C18490A60002B76
:1012480022D1144804F0EEF80346002B1CD11148B3
:1012580000F0EAF87B68002B16D10E4800F0A0F8E1
:101268000346002B03D06FF007037B600CE00021DE
:10127800084804F0B3FB0346002B03D06FF00703C4
:101288007B6001E000237B607B6818460837BD4619
:1012980080BD00BF201000200058004074100020BE
:1012A80080B584B000AF03463960FB800023FB6043
:1012B800F9884FF480533A68064803F0BFFF0346A5
:1012C800002B02D06FF00203FB60FB681846103752
:1012D800BD4680BD2010002080B58AB004AFBA603A
:1012E8001A460346FB810B46BB811346FB8000234D
:1012F8007B61BA89F9894FF480530293FB88019383
:10130800BB68009301230C4803F06AFD0346002BD9
:101318000CD0094804F094F80346042B03D16FF06D
:1013280065037B6102E06FF003037B617B6918460C
:101338001837BD4680BD00BF2010002080B58AB098
:1013480004AFBA601A460346FB810B46BB811346BD
:10135800FB8000237B61BA89F9894FF4805302939B
:10136800FB880193BB68009301230C4803F04CFEF3
:101378000346002B0CD0094804F062F80346042BFE
:1013880003D16FF065037B6102E06FF003037B61BB
:101398007B6918461837BD4680BD00BF2010002065
:1013A80080B584B000AF78600023FB737B681C4A6B
:1013B8001A607B681B4A5A607B6800229A607B68C7
:1013C8000122DA607B6800221A617B6800225A6178
:1013D8007B6800229A617B680022DA617B680022C0
:1013E8001A62786803F056FC0346002B01D00123EB
:1013F800FB730021786804F0F1FA0346002B01D052
:101408000123FB730021786804F033FB0346002BAB
:1014180001D00123FB73FB7B18461037BD4680BD06
:1014280000580040EC9D903080B5BCB000AF7860AB
:1014380007F11003C822002118460AF013FE4FF0E6
:1014480080024FF00003C7E904230023FB6707F17C
:101458001003184605F012FF254BD3F88C30244AA8
:1014680043F08003C2F88C30214BD3F88C3003F062
:101478008003FB60FB681023C7F8DC301223C7F831
:10148800E0300023C7F8E4300023C7F8E83004232D
:10149800C7F8EC3007F1DC031946164803F0ACF93D
:1014A8002023C7F8DC301223C7F8E0300023C7F840
:1014B800E4300023C7F8E8300423C7F8EC3007F11C
:1014C800DC0319460B4803F097F9094BD3F89C3015
:1014D800074A43F48003C2F89C30054BD3F89C308C
:1014E80003F48003BB60BB6800BFF037BD4680BD16
:1014F800000C0246001C024280B58AB000AF07F11A
:10150800140300221A605A609A60DA601A613E4B2E
:10151800D3F88C303C4A43F00403C2F88C303A4B81
:10152800D3F88C3003F004033B613B69364BD3F8A6
:101538008C30354A43F08003C2F88C30324BD3F8F4
:101548008C3003F08003FB60FB682F4BD3F88C30A2
:101558002D4A43F00103C2F88C302B4BD3F88C3062
:1015680003F00103BB60BB68274BD3F88C30264AD5
:1015780043F01003C2F88C30234BD3F88C3003F0BF
:1015880010037B607B680122C021204803F014FB14
:101598004FF400537B611E4BBB610023FB6107F1D5
:1015A800140319461B4803F027F9C0237B61012364
:1015B800BB610023FB6100233B6207F1140319465A
:1015C800124803F019F94FF400637B61104BBB61BB
:1015D8000023FB6107F1140319460F4803F00CF9C7
:1015E80000220021162003F02BF8162003F042F801
:1015F80000220021182003F023F8182003F03AF8FD
:1016080000BF2837BD4680BD000C0246001C0242C0
:1016180000001110000802420010024280B500AF1D
:10162800002004F073FA0346002B01D000F052FAB0
:1016380004F08CFA0346002B01D000F04BFA00BFEF
:1016480080BD000080B584B000AFF860B9607A60F2
:101658007B689AB24FF0FF33B968044808F03EFB44
:101668007B6818461037BD4680BD00BF4013002078
:1016780080B582B000AF09F09DF878607B68002BD8
:1016880004D017480AF010FC00F024FA154800F0BE
:1016980075FC78607B68002B04D013480AF004FCC2
:1016A80000F018FA012211490E4801F01FFA78607B
:1016B8007B68002B04D00E480AF0F6FB00F00AFA0B
:1016C8000C4A0D49074801F013F978600B4A0C4998
:1016D800044801F073F9786000BF0837BD4680BD43
:1016E800ECE000088010002008E10008000000205D
:1016F80024E100082C1300203413002030130020AC
:101708003813002080B584B000AF78603960134A80
:101718007B681360124A3B68136001220F49114825
:1017280001F0BAFAF86001220D490E4801F080FB79
:10173800F86001210B4800F051FCF860FB68002BB1
:1017480008D0084801F0A2F9F86007480AF0ACFB95
:1017580000F0C0F900BF1037BD4680BD341300202B
:10176800381300208010002048E1000880B487B0BA
:1017780000AF786039607B681B687B6100233B6140
:101788000123FB6017E0FB689B007A681344D3EDE4
:10179800007A97ED057AB4EEE77AF1EE10FA07D5FC
:1017A800FB689B007A6813441B687B61FB683B619C
:1017B800FB680133FB60FA683B689A42E3D33B69F4
:1017C80018461C37BD465DF8047B70472DE9F04F7D
:1017D80093B00AAF02F092FD00F070F900F012F930
:1017E800FFF78AFEFFF71AFF00F090FAFFF71AFDDD
:1017F8000A21D720FFF754FDFFF7C0FBFFF738FF9A
:101808000023FB61714B1B68002BFBD06F4B002240
:101818001A60FFF735FC6E4B1B68002B00F09080B8
:10182800002240216B4803F0C7F96B4B93ED007A17
:10183800DFED6A6AC7EE267A694AFB699B001344A2
:10184800C3ED007A644B93ED017AFB690133DFED58
:10185800636AC7EE267A624A9B001344C3ED007A96
:101868005D4B93ED027AFB690233DFED5C6AC7EEEC
:10187800267A5B4A9B001344C3ED007A594B93EDDB
:10188800007AFB690333DFED586AC7EE267A544ABB
:101898009B001344C3ED007A524B93ED017AFB6928
:1018A8000433DFED516AC7EE267A4D4A9B00134494
:1018B800C3ED007A4B4B93ED027AFB690533DFEDFC
:1018C8004A6AC7EE267A464A9B001344C3ED007A5B
:1018D800FB690633FB61FB699C2B93D10023FB61F9
:1018E80042480AF0E1FA42493D48FFF70BFF00235E
:1018F800BB610FE03E4ABB699B0013441B68184656
:10190800FEF722FE02460B463A480AF065FABB6922
:101918000133BB61BB69022BECD903213448FFF7C3
:1019280025FF78617969344A7B6952F823301A4671
:1019380032480AF051FA8021264803F055F961E748
:1019480002F096FD0646244B1B681846FEF7FCFD80
:10195800C7E90201204B5B681846FEF7F5FD04460F
:101968000D461D4B9B681846FEF7EEFD80468946DE
:101978001C4B1B681846FEF7E7FD82468B46194B41
:101988005B681846FEF7E0FDC7E90001154B9B6848
:101998001846FEF7D9FD02460B46CDE9082397ED18
:1019A800007B8DED067BCDE904ABCDE90289CDE95D
:1019B8000045D7E90223314611480AF00DFA012201
:1019C8004021044803F0F8F81CE700BF7810002015
:1019D8007C100020001C0242EC0F002000007A4519
:1019E800B0100020F80F00200024744964E10008BA
:1019F8002013002078E100080400002080E100089E
:101A08008CE1000880B59EB000AF07F11803602292
:101A1800002118460AF026FB3B4600221A605A604D
:101A28009A60DA601A615A614FF4403004F09EF807
:101A38000346002B01D000F04DF81023BB610123B1
:101A48007B631023BB634FF08043FB6302233B653A
:101A580001237B650023FB650123BB6550233B669F
:101A680002237B660223BB660223FB6600233B67D7
:101A780000237B6707F11803184604F053F903465F
:101A8800002B01D000F026F81F233B6003237B6066
:101A98000023BB600023FB6000233B6100237B61C4
:101AA8003B460421184605F019F80346002B01D0DF
:101AB80000F010F800BF7837BD4680BD80B500AF94
:101AC800022004F0DFF80346002B01D000F002F8F2
:101AD80000BF80BD80B400AF72B600BF00BFFDE795
:101AE80080B483B000AF0A4BD3F89430084A43F06F
:101AF8000403C2F89430064BD3F8943003F004037F
:101B08007B607B6800BF0C37BD465DF8047B70477F
:101B1800000C024680B400AF00BFFDE780B400AF00
:101B280000BFFDE780B400AF00BFFDE780B400AFA1
:101B380000BFFDE780B400AF00BFFDE780B400AF91
:101B480000BFBD465DF8047B704780B400AF00BF9E
:101B5800BD465DF8047B704780B400AF00BFBD464A
:101B68005DF8047B704780B500AF02F06DFC00BFE4
:101B780080BD000080B500AF4FF4006003F04EF860
:101B8800024B01221A6000BF80BD00BF7810002000
:101B980080B500AF4FF4005003F040F8054B1B68C8
:101BA800002B0CBF01230023DBB21A46014B1A603D
:101BB80000BF80BD7C10002080B400AF0123184610
:101BC800BD465DF8047B704780B582B000AF786091
:101BD80039600AF099FA034616221A604FF0FF336B
:101BE80018460837BD4680BD80B582B000AF786022
:101BF8004FF0FF317868FFF7E7FF00BFFDE780B5DA
:101C080086B000AFF860B9607A6000237B610AE0B3
:101C1800AFF300800146BB685A1CBA60CAB21A709A
:101C28007B6901337B617A697B689A42F0DB7B6868
:101C380018461837BD4680BD80B483B000AF7860C1
:101C48004FF0FF3318460C37BD465DF8047B7047EC
:101C580080B483B000AF786039603B684FF40052BD
:101C68005A60002318460C37BD465DF8047B704760
:101C780080B483B000AF7860012318460C37BD46A6
:101C88005DF8047B704780B485B000AFF860B96038
:101C98007A60002318461437BD465DF8047B704708
:101CA80080B586B000AF7860144A154BD31A7B61B3
:101CB8007B693B61134B1B68002B02D1114B124A05
:101CC8001A60104B1A687B6813443A699A4207D223
:101CD8000AF01AFA03460C221A604FF0FF3309E0A3
:101CE800084B1B68FB60074B1A687B681344054A5E
:101CF8001360FB6818461837BD4680BD00000C20ED
:101D0800004000003C1300202815002080B500AFDB
:101D1800224B234A1A60214B4FF4E1325A601F4B81
:101D280000229A601D4B0022DA601C4B00221A61C7
:101D38001A4B0C225A61194B00229A61174B002248
:101D4800DA61164B00221A62144B00225A62134BB6
:101D580000229A62114807F071FF0346002B01D058
:101D6800FFF7B8FE00210D4808F05AFC0346002B87
:101D780001D0FFF7AFFE0021084808F08FFC0346AA
:101D8800002B01D0FFF7A6FE044808F010FC03461C
:101D9800002B01D0FFF79EFE00BF80BD401300203E
:101DA8000038014080B5BCB000AF786007F1DC03B3
:101DB80000221A605A609A60DA601A6107F110030B
:101DC800C822002118460AF04DF97B681B68264A8C
:101DD800934245D14FF001024FF00003C7E90423B5
:101DE80000233B6607F11003184605F047FA03463F
:101DF800002B01D0FFF76EFE1C4BD3F8A4301B4A12
:101E080043F48043C2F8A430184BD3F8A43003F449
:101E18008043FB60FB68154BD3F88C30134A43F0C2
:101E28000103C2F88C30114BD3F88C3003F0010356
:101E3800BB60BB684FF4C063C7F8DC300223C7F847
:101E4800E0300023C7F8E4300023C7F8E830072360
:101E5800C7F8EC3007F1DC031946054802F0CCFC62
:101E680000BFF037BD4680BD00380140000C024677
:101E78000000024280B485B000AF78600023FB60A8
:101E880009E07B68FA68083253F82230002B06D044
:101E9800FB680133FB60FB68002BF2D000E000BF59
:101EA8007B681B69FA68012A02D14FF0806200E062
:101EB80000221A437B681A610023FB6009E07B68F3
:101EC800FA680A3253F82230002B06D0FB68013337
:101ED800FB60FB68002BF2D000E000BF7B681B6949
:101EE800FA68012A02D14FF0006200E000221A438A
:101EF8007B681A610023FB600AE07A68FB680A3392
:101F08009B0013445B68002B06D0FB680133FB6021
:101F1800FB68002BF1D000E000BF7B681B69FA6802
:101F2800012A02D14FF0805200E000221A437B6858
:101F38001A610023FB600AE07A68FB6808339B009B
:101F480013445B68002B06D0FB680133FB60FB6819
:101F5800002BF1D000E000BF7B681B69FA68012AFA
:101F680002D14FF0804200E000221A437B681A61D8
:101F780000BF1437BD465DF8047B7047B0B584B028
:101F880000AF78607B68FB60FB6800225A61FB68E1
:101F9800002B02D14FF4403317E0FB6803F007032E
:101FA800002B01D00B4B10E0FB680B4A1C46154672
:101FB8000FCD0FC40FCD0FC495E80F0084E80F00B4
:101FC800F868FFF757FFFB685B6918461037BD468E
:101FD800B0BD00BF02000300B0E10008F0B5FFB0DB
:101FE80012AF07F5D873A3F5C67318600A4607F54C
:101FF800D873A3F28D131A7007F5D873A3F5C673B7
:102008001B68C7F8AC31D7F8AC31002B03D14FF4BB
:10201800403300F068BCD7F8AC3103F00703002B5D
:1020280002D0554B00F05FBCD7F8AC311B68534A5F
:1020380093420ED0D7F8AC315B69002B04D1D7F8A6
:10204800AC314FF440325A61D7F8AC315B6900F0DB
:102058004ABCD7F8AC31002B03D14FF4403300F021
:1020680042BCD7F8AC3103F00703002B02D0424B37
:1020780000F039BCD7F8AC311B6903F08063002B42
:102088000ED1D7F8AC315B69002B04D1D7F8AC314D
:102098004FF480225A61D7F8AC315B6900F023BC59
:1020A800D7F8AC31002B03D14FF4403300F01BBC00
:1020B800D7F8AC3103F00703002B02D02E4B00F009
:1020C80012BCD7F8AC311B6903F00063002B0CD1AC
:1020D800D7F8AC315B69002B03D1D7F8AC31284A6B
:1020E8005A61D7F8AC315B69FDE3D7F8AC31002B06
:1020F80002D14FF44033F6E3D7F8AC3103F00703CD
:10210800002B01D01C4BEEE3D7F8AC311B6903F070
:102118008053002B0CD1D7F8AC315B69002B03D16D
:10212800D7F8AC31174A5A61D7F8AC315B69DAE3B2
:10213800D7F8AC31002B02D14FF44033D3E3D7F8B2
:10214800AC3103F00703002B01D00B4BCBE3D7F8DE
:10215800AC311B6903F08043002B17D1D7F8AC31A1
:102168005B69002B03D1D7F8AC31074A5A61D7F81D
:10217800AC315B69B7E300BF020003000001C0B1E6
:10218800100004002000040040000400D7F8AC311F
:102198009B6AC7F8A831D7F8AC311B6A4033C7F837
:1021A800A431D7F8AC315B6AC7F8A031D7F8AC31A5
:1021B8005B6A03F51063C7F89C31D7F8AC311B6A2A
:1021C80003F65853C7F89831D7F8AC319B69002B00
:1021D80017D00023C7F858310123C7F85C31D7F866
:1021E800A831C7F8543107F5AA73C7F86031D7F892
:1021F800AC319B69D7F8AC21D06907F5AC720121E5
:1022080098470620202401251A260123FB6118225D
:10221800BA610121796103233B6100239AB200234B
:1022280099B20123FB600123BB6001237B6001237A
:102238003B60012311933B6810937B680F93012344
:102248000E9303230D93BB680C93FB680B930A91C1
:1022580009923B69089379690791BA690692FB6903
:1022680005930496039502940190D7F8983100934A
:10227800D7F89C31D7F8A021D7F8A411D7F8A8012E
:1022880008F09AFAD7F8AC319B69002B17D00023D5
:10229800C7F848310123C7F84C31D7F8A431C7F83B
:1022A800443107F5A273C7F85031D7F8AC319B69B0
:1022B800D7F8AC21D06907F5A47202219847D7F85E
:1022C800AC311B6A4033C7F89431D7F8AC311B6A7C
:1022D8004033C7F89031D7F8AC319B69002B17D041
:1022E8000023C7F838310123C7F83C31D7F89031BB
:1022F800C7F8343107F59A73C7F84031D7F8AC31CD
:102308009B69D7F8AC21D06907F59C7201219847E1
:102318004FF440720023D7F89011D7F8940108F0D1
:10232800DFFED7F8AC319B69002B17D00023C7F824
:1023380028310123C7F82C31D7F89431C7F8243154
:1023480007F59273C7F83031D7F8AC319B69D7F8E5
:10235800AC21D06907F5947202219847D7F8AC31BF
:102368001B6A4033C7F88C31D7F8AC311B6AC7F801
:102378008831D7F8AC315B6A03F51863C7F8843144
:10238800D7F8AC315B6A03F50653C7F88031D7F844
:10239800AC311B6A03F54463C7F87C31D7F8AC311C
:1023A8009B69002B17D00123C7F818310123C7F800
:1023B8001C31D7F88C31C7F8143107F58A73C7F880
:1023C8002031D7F8AC319B69D7F8AC21D06907F533
:1023D8008C720121984720201024012518260123FA
:1023E800FB611622BA610121796103233B61002355
:1023F8009AB2002399B20123FB600123BB60012339
:102408007B6001233B60012311933B6810937B6839
:102418000F9301230E9303230D93BB680C93FB6862
:102428000B930A9109923B69089379690791BA69F4
:102438000692FB6905930496039502940190D7F8D8
:102448007C310093D7F88031D7F88421D7F88811E8
:10245800D7F88C0108F0B0F9D7F8AC319B69002B9C
:1024680017D00123C7F808310123C7F80C31D7F872
:102478008831C7F8043107F58273C7F81031D7F8E7
:10248800AC319B69D7F8AC21D06907F58472022179
:102498009847D7F8AC311B6A03F5B063C7F87831B1
:1024A800D7F8AC311B6AC7F87431D7F8AC319B69DF
:1024B800002B17D00123C7F8F8300123C7F8FC30E8
:1024C800D7F87431C7F8F43007F1F403C7F80031CE
:1024D800D7F8AC319B69D7F8AC21D06907F1F8027D
:1024E800012198474FF4B0720023D7F87411D7F838
:1024F800780108F0F5FDD7F8AC319B69002B17D0AF
:102508000123C7F8E8300123C7F8EC30D7F8783151
:10251800C7F8E43007F1E403C7F8F030D7F8AC3176
:102528009B69D7F8AC21D06907F1E80202219847E6
:10253800D7F8AC311B6AC7F8C830D7F8AC311B6A7A
:1025480003F5B063C7F8CC30D7F8AC315B6A03F554
:102558000753C7F8D030D7F8AC315B6A03F5C033FE
:1025680003F5E073C7F8D4304FF4B073C7F8D83028
:102578004023C7F8DC300123C7F8E030D7F8AC3186
:102588009B69002B1AD00423C7F8BC300123C7F875
:10259800C030D7F8AC311B6A03F5B063C7F8B83060
:1025A80007F1B803C7F8C430D7F8AC319B69D7F83E
:1025B800AC21D06907F1BC020121984707F1C80393
:1025C800184608F031FCD7F8AC319B69002B24D0B1
:1025D80007F5D873A3F5827304221A6007F5D87338
:1025E800A3F5827301225A60D7F8AC311A6A07F54D
:1025F800D873A3F584731A6007F5D873A3F58273AB
:1026080007F1A8029A60D7F8AC319B69D7F8AC21DA
:10261800D06907F1AC0202219847D7F8AC311B6AA0
:1026280003F58073C7F87031D7F8AC311B6AC7F867
:102638006C31D7F8AC319B69002B23D007F5D873E0
:10264800A3F58A7304221A6007F5D873A3F58A7371
:1026580001225A6007F5D873A3F58C73D7F86C215B
:102668001A6007F5D873A3F58A7307F198029A6080
:10267800D7F8AC319B69D7F8AC21D06907F19C0237
:102688000121984740220023D7F86C11D7F8700130
:1026980008F026FDD7F8AC319B69002B23D007F54D
:1026A800D873A3F5927304221A6007F5D873A3F5BB
:1026B800927301225A6007F5D873A3F59473D7F87B
:1026C80070211A6007F5D873A3F5927307F1880291
:1026D8009A60D7F8AC319B69D7F8AC21D06907F17B
:1026E8008C0202219847D7F8AC311A6A07F5D873DB
:1026F800A3F5A2731A60D7F8AC311B6A03F5807290
:1027080007F5D873A3F5A2735A60D7F8AC315B6AA2
:1027180003F5C133C03307F5D872A2F5A2729360EE
:10272800D7F8AC315B6A03F5C23303F5E07307F5FC
:10273800D872A2F5A272D36007F5D873A3F5A27375
:1027480040221A6107F5D873A3F5A27303225A61D0
:1027580007F5D873A3F5A27301229A61D7F8AC31B3
:102768009B69002B26D007F5D873A3F5A87305221B
:102778001A6007F5D873A3F5A87301225A60D7F831
:10278800AC311B6A03F5807207F5D873A3F5AA73F9
:102798001A6007F5D873A3F5A87307F15C029A606D
:1027A800D7F8AC319B69D7F8AC21D06907F1600242
:1027B8000121984707F16C03184608F035FBD7F854
:1027C800AC319B69002B24D007F5D873A3F5B073FF
:1027D80005221A6007F5D873A3F5B07301225A6071
:1027E800D7F8AC311A6A07F5D873A3F5B2731A6033
:1027F80007F5D873A3F5B07307F14C029A60D7F8C0
:10280800AC319B69D7F8AC21D06907F1500202219D
:102818009847D7F8AC31DB6AC7F86831D7F8AC31DC
:102828001B6AC7F86431D7F8AC319B69002B23D0F9
:1028380007F5D873A3F5B87305221A6007F5D8739E
:10284800A3F5B87301225A6007F5D873A3F5BA73D4
:10285800D7F864211A6007F5D873A3F5B87307F1A0
:102868003C029A60D7F8AC319B69D7F8AC21D069A3
:1028780007F140020121984703231A4603230093D6
:102888000123D7F86411D7F8680108F045FCD7F898
:10289800AC319B69002B23D007F5D873A3F5C0731F
:1028A80005221A6007F5D873A3F5C07301225A6090
:1028B80007F5D873A3F5C273D7F868211A6007F52E
:1028C800D873A3F5C07307F12C029A60D7F8AC311E
:1028D8009B69D7F8AC21D06907F1300202219847EB
:1028E800D7F8AC315B69184607F5DA77BD46F0BD15
:1028F80080B487B000AFF860B9607A60FB683B616C
:102908003B69002B02D14FF440334BE03B6903F0A5
:102918000703002B01D0264B44E03B691B68254A7E
:1029280093420AD03B695B69002B03D13B694FF4A2
:1029380040325A613B695B6934E03B69002B02D144
:102948004FF440332EE03B6903F00703002B01D01E
:10295800174B27E07B68002B09D13B695B69002B8B
:1029680002D13B69144A5A613B695B691AE07B688A
:1029780001221A6000237B610CE07B699B00BA6826
:1029880013443A6979690A3152F821201A607B693F
:1029980001337B61BB68002B02D07B69002BECD034
:1029A8003B695B6918461C37BD465DF8047B704778
:1029B800020003000001C0B10100020080B487B02A
:1029C80000AFF860B9607A60FB683B613B69002B37
:1029D80002D14FF440334CE03B6903F00703002B6E
:1029E80001D0274B45E03B691B68264A93420AD031
:1029F8003B695B69002B03D13B694FF440325A6154
:102A08003B695B6935E03B69002B02D14FF44033E9
:102A18002FE03B6903F00703002B01D0184B28E097
:102A28007B68002B09D13B695B69002B02D13B69AC
:102A3800154A5A613B695B691BE07B6801221A6091
:102A480000237B610DE07B699B00BA681A443969F1
:102A58007B690A339B000B445B6813607B69013315
:102A68007B61BB68002B02D07B69002BEBD03B69F4
:102A78005B6918461C37BD465DF8047B704700BF8C
:102A8800020003000001C0B10100020080B485B05B
:102A980000AF78607B68FB60FB68002B02D14FF4C5
:102AA800403318E0FB6803F00703002B01D00D4BFF
:102AB80011E0FB681B680C4A93420AD0FB685B690B
:102AC800002B03D1FB684FF440325A61FB685B6905
:102AD80001E0FB685B6918461437BD465DF8047B66
:102AE800704700BF020003000001C0B180B588B084
:102AF80000AFF860B9607A60FB68BB61BB69002B06
:102B080002D14FF44033B9E0BB6903F00703002B4F
:102B180001D05C4BB2E0BB691B685B4A93420AD0A8
:102B2800BB695B69002B03D1BB694FF440325A6122
:102B3800BB695B69A2E004237B61BB69002B02D1FE
:102B48004FF440339AE0BB6903F00703002B01D030
:102B58004C4B93E0BB68002B09D1BB695B69002B28
:102B680002D1BB69494A5A61BB695B6986E0BB69A6
:102B7800002B02D14FF4403380E0BB6903F0070318
:102B8800002B01D03F4B79E07B68012B09D0BB6952
:102B98005B69002B02D1BB693D4A5A61BB695B691D
:102BA8006CE00023FB6152E0BB69002B02D14FF4BB
:102BB800403363E0BB6903F00703002B01D0314BBE
:102BC8005CE0FB699B00BA6813441B68002B0AD1C0
:102BD800BB695B69002B03D1BB694FF480225A6142
:102BE800BB695B694AE0BB69002B02D14FF44033F3
:102BF80044E0BB6903F00703002B01D0214B3DE003
:102C0800FB699B00BA6813441B681A46FB699B0062
:102C180020333B4453F80C3C013B1340002B09D0B4
:102C2800BB695B69002B02D1BB691A4A5A61BB694F
:102C38005B6923E0FB699B00BA6813441968BB69A8
:102C4800FA69083243F82210FB690133FB61BB685B
:102C5800002B02D0FB69002BA6D0BB681B6803F6CB
:102C6800E822BB699A62BB681B6803F10C02BB6966
:102C7800DA62B869FFF7FEF8BB695B691846203766
:102C8800BD4680BD020003000001C0B10100020082
:102C9800010004007000040080B588B000AFF8603F
:102CA800B9607A6004237B61FB68BB61BB69002B58
:102CB80002D14FF44033AAE0BB6903F00703002BAD
:102CC80001D0554BA3E0BB691B68544A93420AD014
:102CD800BB695B69002B03D1BB694FF440325A6171
:102CE800BB695B6993E0BB69002B02D14FF44033A9
:102CF8008DE0BB6903F00703002B01D0464B86E04B
:102D0800BB68002B09D1BB695B69002B02D1BB6989
:102D1800434A5A61BB695B6979E0BB69002B02D100
:102D28004FF4403373E0BB6903F00703002B01D075
:102D3800394B6CE07B68012B09D0BB695B69002BC0
:102D480002D1BB69374A5A61BB695B695FE00023FE
:102D5800FB6151E0BB69002B02D14FF4403356E0D0
:102D6800BB6903F00703002B01D02B4B4FE0FB6935
:102D78009B00BA6813441B68002B09D1BB695B69C7
:102D8800002B02D1BB69284A5A61BB695B693EE0E6
:102D9800BB69002B02D14FF4403338E0BB6903F024
:102DA8000703002B01D01C4B31E0FB699B00BA687C
:102DB80013441B681A46FB699B0020333B4453F8B5
:102DC8000C3C013B1340002B09D0BB695B69002B0D
:102DD80002D1BB69154A5A61BB695B6917E0FB6997
:102DE8009B00BA6813441968BB69FA690A3243F848
:102DF8002210FB690133FB61BB68002B02D0FB6921
:102E0800002BA7D0B869FFF735F8BB695B6918468E
:102E18002037BD4680BD00BF020003000001C0B1DD
:102E280001000200110004001000040070000400FA
:102E380080B588B000AFF860B9607A6004237B6120
:102E4800FB68BB61BB69002B02D14FF44033ACE097
:102E5800BB6903F00703002B01D0564BA5E0BB6903
:102E68001B68554A93420AD0BB695B69002B03D1A2
:102E7800BB694FF440325A61BB695B6995E0BB6935
:102E8800002B02D14FF440338FE0BB6903F00703F6
:102E9800002B01D0474B88E0BB68002B09D1BB69E8
:102EA8005B69002B02D1BB69444A5A61BB695B6903
:102EB8007BE0BB69002B02D14FF4403375E0BB695E
:102EC80003F00703002B01D03A4B6EE07B68012B1F
:102ED80009D0BB695B69002B02D1BB69384A5A61CA
:102EE800BB695B6961E00023FB6152E0BB69002BB1
:102EF80002D14FF4403358E0BB6903F00703002BBD
:102F080001D02C4B51E0FB699B00BA6813441B6845
:102F1800002B09D1BB695B69002B02D1BB69294A27
:102F28005A61BB695B6940E0BB69002B02D14FF471
:102F380040333AE0BB6903F00703002B01D01D4B77
:102F480033E0FB699B00BA6813441B681A46FB69A7
:102F58009B0020333B4453F80C3C013B1340002BAF
:102F680009D0BB695B69002B02D1BB69164A5A615B
:102F7800BB695B6919E0FB699B00BA6813441A686E
:102F8800B969FB690A339B000B445A60FB6901333A
:102F9800FB61BB68002B03D0FA697B689A42A5D312
:102FA800B869FEF767FFBB695B6918462037BD46FD
:102FB80080BD00BF020003000001C0B10100020093
:102FC80021000400200004007000040090B587B0C0
:102FD80000AFF8607A601A460B46FB7213463B81D5
:102FE800FB68002B02D14FF0FF3309E0FB685C68F7
:102FF800FB68D8683B89F97A7A68A04778617B6969
:1030080018461C37BD4690BD90B587B000AFF86034
:103018007A601A460B46FB7213463B81FB68002B0D
:1030280002D14FF0FF3309E0FB681C68FB68D868E1
:103038003B89F97A7A68A04778617B6918461C371A
:10304800BD4690BD80B483B000AF0346FB80B7F99E
:10305800063007EE903AF8EEE77A9FED057A67EECC
:10306800877AB0EE670A0C37BD465DF8047B704777
:1030780023DBF93D80B483B000AF0346FB80B7F98A
:10308800063007EE903AF8EEE77A9FED057A67EE9C
:10309800877AB0EE670A0C37BD465DF8047B704747
:1030A80000000C4280B483B000AF0346FB80B7F940
:1030B800063007EE903AB8EEE77ADFED076AC7EE1A
:1030C800267AB3EE097A77EE877AB0EE670A0C377C
:1030D800BD465DF8047B70470000804380B584B02E
:1030E80000AF78600B46FB7007F10802012310213E
:1030F8007868FFF76BFFF860FB68002B0FD1FB784F
:1031080003F00303DAB23B7A62F383033B7207F1FD
:103118000802012310217868FFF776FFF860FB6842
:1031280018461037BD4680BD80B586B000AF7860C0
:103138000B46FB70FB78FB7507F10C0319467868A2
:1031480000F0B2FF38613B69002B40F0C4803B7B44
:10315800C3F30003DAB23B7BC3F34003DBB2134390
:10316800DAB23B7BC3F38003DBB21343DAB23B7BB7
:10317800C3F3C003DBB21343DAB23B7BC3F30013E0
:10318800DBB21343DAB23B7BC3F34013DBB2134326
:10319800DAB23B7BC3F38013DBB21343DAB23B7B77
:1031A800C3F3C013DBB21343DAB27B7BC3F3000370
:1031B800DBB21343DAB27B7BC3F34003DBB21343C6
:1031C800DAB27B7BC3F38003DBB21343DAB27B7BD7
:1031D800C3F3C003DBB21343DAB27B7BC3F3001340
:1031E800DBB21343DAB27B7BC3F34013DBB2134386
:1031F800DAB27B7BC3F38013DBB21343DAB27B7B97
:10320800C3F3C013DBB21343DBB2012B63D107F165
:103218000B031946786800F073FF38613B69002B8F
:1032280059D1FB7A032B53D801A252F823F000BFDF
:10323800493200085B32000879320008A3320008DE
:10324800FB78002B02D10123FB7544E0FB78FB756A
:1032580041E0FB78002B02D10223FB753BE0FB78B1
:10326800012B02D10223FB7535E0FB78FB7532E0B8
:10327800FB78002B02D10323FB752CE0FB78012B94
:1032880002D10323FB7526E0FB78022B02D103232E
:10329800FB7520E0FB78FB751DE0FB78002B02D165
:1032A8000423FB7517E0FB78012B02D10423FB757F
:1032B80011E0FB78022B02D10423FB750BE0FB78AD
:1032C800032B02D10423FB7505E0FB78FB7502E0B4
:1032D800FB78FB7500BF0023BB723B69002B70D1E4
:1032E80007F10A031946786800F058FF3861BB7A7D
:1032F800012B66D107F109031946786800F07AFFB7
:1033080002463B6913443B613B69002B59D17B7AE8
:10331800032B53D801A252F823F000BF353300081D
:1033280047330008653300088F330008FB78002B0B
:1033380002D10123FB7544E0FB78FB7541E0FB7883
:10334800002B02D10223FB753BE0FB78012B02D155
:103358000223FB7535E0FB78FB7532E0FB78002B28
:1033680002D10323FB752CE0FB78012B02D1032348
:10337800FB7526E0FB78022B02D10323FB7520E0C6
:10338800FB78FB751DE0FB78002B02D10423FB754D
:1033980017E0FB78012B02D10423FB7511E0FB78C1
:1033A800022B02D10423FB750BE0FB78032B02D11F
:1033B8000423FB7505E0FB78FB7502E0FB78FB75E1
:1033C80000BF3B69002B07D107F108020123102138
:1033D8007868FFF7FBFD38613B69002B0FD1FB7D57
:1033E80003F00F03DAB23B7A62F307133B7207F17B
:1033F8000802012310217868FFF706FE38613B694F
:1034080018461837BD4680BD80B584B000AF7860D7
:103418000B46FB7007F10802012311217868FFF7BA
:10342800D5FDF860FB68002B0FD1FB7803F00F0384
:10343800DAB23B7A62F303033B7207F10802012315
:1034480011217868FFF7E0FDF860FB68184610372F
:10345800BD4680BD80B586B000AF78600B46FB7076
:10346800FB78FB7507F10C031946786800F01CFE21
:1034780038613B69002B40F0C4803B7BC3F30003F9
:10348800DAB23B7BC3F34003DBB21343DAB23B7BD4
:10349800C3F38003DBB21343DAB23B7BC3F3C0034D
:1034A800DBB21343DAB23B7BC3F30013DBB2134343
:1034B800DAB23B7BC3F34013DBB21343DAB23B7B94
:1034C800C3F38013DBB21343DAB23B7BC3F3C013FD
:1034D800DBB21343DAB27B7BC3F30003DBB21343E3
:1034E800DAB27B7BC3F34003DBB21343DAB27B7BF4
:1034F800C3F38003DBB21343DAB27B7BC3F3C003AD
:10350800DBB21343DAB27B7BC3F30013DBB21343A2
:10351800DAB27B7BC3F34013DBB21343DAB27B7BB3
:10352800C3F38013DBB21343DAB27B7BC3F3C0135C
:10353800DBB21343DBB2012B63D107F10B0319464E
:10354800786800F0DDFD38613B69002B59D1FB7AC2
:10355800032B53D801A252F823F000BF7535000899
:1035680087350008A5350008CF350008FB78002B03
:1035780002D10123FB7544E0FB78FB7541E0FB7841
:10358800002B02D10223FB753BE0FB78012B02D113
:103598000223FB7535E0FB78FB7532E0FB78002BE6
:1035A80002D10323FB752CE0FB78012B02D1032306
:1035B800FB7526E0FB78022B02D10323FB7520E084
:1035C800FB78FB751DE0FB78002B02D10423FB750B
:1035D80017E0FB78012B02D10423FB7511E0FB787F
:1035E800022B02D10423FB750BE0FB78032B02D1DD
:1035F8000423FB7505E0FB78FB7502E0FB78FB759F
:1036080000BF0023BB723B69002B70D107F10A038E
:103618001946786800F0C2FD3861BB7A012B66D183
:1036280007F109031946786800F0E4FD02463B6992
:1036380013443B613B69002B59D17B7A032B53D848
:1036480001A252F823F000BF613600087336000863
:1036580091360008BB360008FB78002B02D1012305
:10366800FB7544E0FB78FB7541E0FB78002B02D149
:103678000223FB753BE0FB78012B02D10223FB758B
:1036880035E0FB78FB7532E0FB78002B02D1032391
:10369800FB752CE0FB78012B02D10323FB7526E098
:1036A800FB78022B02D10323FB7520E0FB78FB7526
:1036B8001DE0FB78002B02D10423FB7517E0FB7893
:1036C800012B02D10423FB7511E0FB78022B02D1F8
:1036D8000423FB750BE0FB78032B02D10423FB7555
:1036E80005E0FB78FB7502E0FB78FB7500BF3B69E2
:1036F800002B07D107F10802012311217868FFF791
:1037080065FC38613B69002B0FD1FB7D03F00F038B
:10371800DAB23B7A62F307133B7207F1080201231E
:1037280011217868FFF770FC38613B691846183733
:10373800BD4680BD80B584B000AF78600B46FB7095
:1037480007F10802012312217868FFF73FFCF860AF
:10375800FB68002B0FD1FB7803F00103DAB23B7A48
:1037680062F386133B7207F108020123122178687D
:10377800FFF74AFCF860FB6818461037BD4680BD65
:1037880080B584B000AF7860396007F10802012382
:103798001E217868FFF71AFCF860FB68002B01D03F
:1037A800FB6807E03B7AC3F30003DBB21A463B68C9
:1037B8001A70FB6818461037BD4680BD80B584B0C6
:1037C80000AF7860396007F1080201231E2178688C
:1037D800FFF7FCFBF860FB68002B01D0FB6807E0F3
:1037E8003B7AC3F34003DBB21A463B681A70FB68A6
:1037F80018461037BD4680BD80B584B000AF7860EC
:10380800396007F1080201231E217868FFF7DEFB03
:10381800F860FB68002B01D0FB6807E03B7AC3F334
:103828008003DBB21A463B681A70FB6818461037EB
:10383800BD4680BD80B584B000AF7860396007F1BF
:103848000802022320217868FFF7C0FBF860FB68B4
:10385800002B01D0FB6810E07B7A1AB23B681A8013
:103868003B68B3F900309BB21B029BB23A7A13440F
:103878009BB21AB23B681A80FB6818461037BD46DF
:1038880080BD80B586B000AF7860396007F10C0262
:10389800062322217868FFF799FB78617B69002B62
:1038A80001D07B6936E07B7B1AB23B681A803B68A3
:1038B800B3F900309BB21B029BB23A7B13449BB214
:1038C8001AB23B681A80FA7B3B68023312B21A803C
:1038D8003B680233B3F900309BB21B029BB2BA7B40
:1038E80013449AB23B68023312B21A807A7C3B685E
:1038F800043312B21A803B680433B3F900309BB228
:103908001B029BB23A7C13449AB23B68043312B24E
:103918001A807B6918461837BD4680BD80B586B0C9
:1039280000AF7860396007F10C0206232821786817
:10393800FFF74CFB78617B69002B01D07B6936E08F
:103948007B7B1AB23B681A803B68B3F900309BB2A4
:103958001B029BB23A7B13449BB21AB23B681A8093
:10396800FA7B3B68023312B21A803B680233B3F920
:1039780000309BB21B029BB2BA7B13449AB23B68DD
:10398800023312B21A807A7C3B68043312B21A806E
:103998003B680433B3F900309BB21B029BB23A7CFC
:1039A80013449AB23B68043312B21A807B691846F2
:1039B8001837BD4680BD80B584B000AF78600B462F
:1039C800FB7007F10802012318217868FFF7FEFA57
:1039D800F860FB68002B0FD1FB7803F00103DAB223
:1039E8003B7A62F341033B7207F108020123182175
:1039F8007868FFF709FBF860FB6818461037BD4682
:103A080080BD80B584B000AF78600B46FB7007F1CD
:103A18000802012301217868FFF7D8FAF860FB68EB
:103A2800002B0FD1FB7803F00303DAB23B7A62F381
:103A380087133B7207F10802012301217868FFF719
:103A4800E3FAF860FB6818461037BD4680BD80B5BC
:103A580084B000AF78600B46FB7007F108020123C1
:103A68000B217868FFF7B2FAF860FB68002B0FD1DA
:103A7800FB7803F00103DAB23B7A62F3C7133B72B7
:103A880007F1080201230B217868FFF7BDFAF860F7
:103A9800FB6818461037BD4680BD80B584B000AFBE
:103AA8007860396001233A680F217868FFF78EFA49
:103AB800F860FB6818461037BD4680BD80B584B0F5
:103AC80000AF78600B46FB7007F108020123122152
:103AD8007868FFF77BFAF860FB68002B0FD1FB785A
:103AE80003F00103DAB23B7A62F300033B7207F199
:103AF8000802012312217868FFF786FAF860FB684C
:103B080018461037BD4680BD80B584B000AF7860D8
:103B1800396007F10802012312217868FFF756FA85
:103B2800F860FB68002B01D0FB6807E03B7AC3F321
:103B38000003DBB21A463B681A70FB681846103758
:103B4800BD4680BD80B584B000AF78600B46FB7081
:103B580007F10802012310217868FFF737FAF860A7
:103B6800FB68002B0FD1FB7803F00103DAB23B7A34
:103B780062F341033B7207F10802012310217868C0
:103B8800FFF742FAF860FB6818461037BD4680BD5B
:103B980080B584B000AF78600B46FB7007F108026F
:103BA800012317217868FFF711FAF860FB68002BEA
:103BB80021D1FB781B0903F00103DAB23B7A62F3E7
:103BC80082033B72FB785B0903F00103DAB23B7AAC
:103BD80062F304133B72FB7803F00703DAB23B7A13
:103BE80062F347133B7207F1080201231721786833
:103BF800FFF70AFAF860FB6818461037BD4680BD23
:103C080080B584B000AF7860396002217868FFF72A
:103C1800F8FEF860FB68002B07D13B685A1D0123AA
:103C28000D217868FFF7F0F9F860FB68002B07D1E1
:103C38003B689A1C01230A217868FFF7E5F9F860C8
:103C4800FB68002B07D13B68DA1C01230B2178683D
:103C5800FFF7DAF9F860FB68002B07D13B681A1DFB
:103C680001230C217868FFF7CFF9F8600021786804
:103C7800FFF7C7FE0246FB681344FB60FB68002B96
:103C880040F0D6803B689B78C3F3C013DAB23B6838
:103C98009B78C3F34013DBB21343DAB23B689B78DB
:103CA800C3F3C003DBB21343DAB23B689B78C3F3B8
:103CB8000013DBB21343DAB23B68DB78C3F30003CB
:103CC800DBB21343DAB23B68DB78C3F34003DBB201
:103CD8001343DAB23B68DB78C3F38003DBB21343E8
:103CE800DAB23B68DB78C3F3C003DBB21343DAB262
:103CF8003B68DB78C3F30013DBB21343DAB23B68EB
:103D0800DB78C3F34013DBB21343DAB23B68DB78EA
:103D1800C3F38013DBB21343DAB23B68DB78C3F337
:103D2800C013DBB21343DAB23B681B79C3F3000359
:103D3800DBB21343DAB23B681B79C3F34003DBB24F
:103D48001343DAB23B681B79C3F38003DBB2134336
:103D5800DAB23B681B79C3F3C003DBB21343DAB2B0
:103D68003B681B79C3F30013DBB21343DAB23B6839
:103D78001B79C3F34013DBB21343DAB23B681B79F8
:103D8800C3F38013DBB21343DAB23B681B79C3F386
:103D9800C013DBB21343DAB23B685B79C3F30003A9
:103DA800DBB21343DAB23B685B79C3F34003DBB29F
:103DB8001343DAB23B685B79C3F38003DBB2134386
:103DC800DAB23B685B79C3F3C003DBB21343DAB200
:103DD8003B685B79C3F30013DBB21343DAB23B6889
:103DE8005B79C3F34013DBB21343DAB23B685B7908
:103DF800C3F38013DBB21343DAB23B685B79C3F3D6
:103E0800C013DBB21343DBB2002B05D03A685378FA
:103E180043F00203537004E03A68537823F0020336
:103E280053703A6801230D217868FFF7EDF8F860C0
:103E3800FB68002B07D13B685A1C01235E21786878
:103E4800FFF7E2F8F860FB68002B79D107F1080268
:103E5800012358217868FFF7B9F8F8603B681B78A8
:103E6800C3F3C013DAB23B681B78C3F38003DBB239
:103E78001343DAB23B681B78C3F38013DBB21343F6
:103E8800DAB23B681B78C3F34003DBB21343DAB200
:103E98003B681B78C3F30003DBB21343DAB23B6819
:103EA8001B78C3F34013DBB21343DAB23B681B78C9
:103EB800C3F30013DBB21343DAB23B681B78C3F3D6
:103EC800C003DBB21343DAB23B685B78C3F3000389
:103ED800DBB21343DAB23B685B78C3F38003DBB22F
:103EE8001343DAB23B685B78C3F3C003DBB2134316
:103EF800DAB23B685B78C3F30013DBB21343DAB280
:103F08003B685B78C3F34013DBB21343DAB23B6818
:103F18005B78C3F38013DBB21343DAB23B685B7898
:103F2800C3F3C013DBB21343DBB2002B04D03B7ADC
:103F380043F080033B7203E03B7A23F080033B723B
:103F4800FB68002B07D107F1080201235821786884
:103F5800FFF75AF8F860FB6818461037BD4680BD71
:103F680080B584B000AF7860396002217868FFF7C7
:103F780048FDF860FB68002B07D13B685A1D0123F8
:103F88000D217868FFF722F8F860FB68002B07D14D
:103F98003B689A1C01230A217868FFF717F8F86034
:103FA800FB68002B07D13B68DA1C01230B217868DA
:103FB800FFF70CF8F860FB68002B07D13B681A1D67
:103FC80001230C217868FFF701F8F8600021786870
:103FD800FFF717FD0246FB681344FB60FB68002BE4
:103FE80006D13A6801230D217868FEF7EFFFF860E3
:103FF800FB68002B07D13B685A1C01235E217868B7
:10400800FEF7E4FFF860FB6818461037BD4680BD30
:1040180080B584B000AF78600B46FB7007F10802EA
:10402800012312217868FEF7D1FFF860FB68002BA6
:104038000FD1FB7803F00103DAB23B7A62F3041381
:104048003B7207F10802012312217868FEF7DCFFB2
:10405800F860FB6818461037BD4680BD80B584B04F
:1040680000AF78600B46FB7007F1080201231221AC
:104078007868FEF7ABFFF860FB68002B0FD1FB7880
:1040880003F00103DAB23B7A62F345133B7207F19E
:104098000802012312217868FEF7B6FFF860FB6872
:1040A80018461037BD4680BD80B584B000AF786033
:1040B800396002217868FFF7A4FCF860FB68002BE0
:1040C80006D13A68012346217868FEF77FFFF86039
:1040D800FB68002B07D13B685A1C012347217868ED
:1040E800FEF774FFF86000217868FFF78AFC024643
:1040F800FB681344FB60FB6818461037BD4680BD5B
:1041080080B584B000AF7860396002217868FFF725
:1041180078FCF860FB68002B07D107F1080201233F
:104128005F217868FEF752FFF86000217868FFF792
:1041380068FC0246FB681344FB60FB68002B01D057
:10414800FB6826E03B7AC3F3C103DBB2032B1BD821
:1041580001A252F823F000BF71410008794100081C
:1041680081410008894100083B6800221A700FE06D
:104178003B6801221A700BE03B6802221A7007E0C4
:104188003B6803221A7003E03B6800221A7000BFE4
:10419800FB6818461037BD4680BD00BF80B584B0A7
:1041A80000AF7860396002217868FFF72AFCF86070
:1041B800FB68002B07D107F1080201230521786865
:1041C800FEF704FFF860FB68002B06D13B7AC3F3C7
:1041D8000013DBB21A463B681A7000217868FFF7B3
:1041E80010FC0246FB681344FB60FB681846103756
:1041F800BD4680BD80B584B000AF786039600221CB
:104208007868FFF7FEFBF860FB68002B07D107F121
:104218000802012360217868FEF7D8FEF860FB6881
:10422800002B25D13B7AC3F30113DBB2032B1BD838
:1042380001A252F823F000BF514200085942000879
:1042480061420008694200083B6800221A700FE0CA
:104258003B6801221A700BE03B6802221A7007E0E3
:104268003B6803221A7003E03B6800221A7000BF03
:1042780000217868FFF7C5FB0246FB681344FB6022
:10428800FB6818461037BD4680BD00BF80B400AF3C
:10429800184BD3F88830174A43F47003C2F88830B3
:1042A800154B01221A60144B0022DA61124B0022CE
:1042B8001A62114B00225A620F4B1B680E4A23F0F8
:1042C800A85323F4102313600B4B00229A620A4B65
:1042D8001B68094A23F480231360074B00221A65E0
:1042E800044B4FF000629A6000BFBD465DF8047B46
:1042F800704700BF00ED00E0000C024680B500AF3B
:10430800124B1B68114A43F480731360032000F0BA
:104318008CF902F0D5FD02460D4B1B6A03F00F0322
:104328000C49CB5C22FA03F30B4A1360042000F01B
:10433800D1F90F2000F012F80346002B01D0012319
:1043480002E0FDF7CDFB0023184680BD00200240A7
:10435800000C0246B06702081000002080B584B047
:1043680000AF78600023FB60334B1B78002B01D132
:1043780001235CE0314B1B6803F00403042B0CD1D0
:104388002F4B1A682C4B1B7819464FF47A73B3FBE2
:10439800F1F3B2FBF3F3FB6037E000F0F3F9B86038
:1043A800BB68022B23D0BB68022B2DD8BB68002B1F
:1043B80003D0BB68012B0DD026E0214B1A681E4B99
:1043C8001B7819464FF4FA53B3FBF1F3B2FBF3F33E
:1043D800FB601AE0184B1B781A464FF47A73B3FB4C
:1043E800F2F34FF4FA42B2FBF3F3FB600DE0124B29
:1043F8001B781A464FF47A73B3FBF2F34FF400427A
:10440800B2FBF3F3FB6000E000BFF86800F040F98E
:104418000346002B01D0012309E0002279684FF000
:10442800FF3000F00DF9074A7B6813600023184637
:104438001037BD4680BD00BF1800002010E000E026
:10444800100000201400002080B400AF064B1B7839
:104458001A46064B1B681344044A136000BFBD4646
:104468005DF8047B704700BF18000020D4130020BB
:1044780080B400AF034B1B681846BD465DF8047B4B
:10448800704700BFD413002080B584B000AF7860B7
:10449800FFF7EEFFB8607B68FB60FB68B3F1FF3F96
:1044A80005D00A4B1B781A46FB681344FB6000BF13
:1044B800FFF7DEFF0246BB68D31AFA689A42F7D8BC
:1044C80000BF00BF1037BD4680BD00BF18000020E8
:1044D80080B485B000AF78607B6803F00703FB60A9
:1044E8000C4BDB68BB60BA684FF6FF031340BB6038
:1044F800FB681A02BB68134343F0BF6343F40033FD
:10450800BB60044ABB68D36000BF1437BD465DF882
:10451800047B704700ED00E080B400AF044BDB681B
:104528001B0A03F007031846BD465DF8047B704775
:1045380000ED00E080B483B000AF0346FB7197F94B
:104548000730002B0BDBFB7903F01F02074997F9B3
:1045580007305B09012000FA02F241F8232000BF6E
:104568000C37BD465DF8047B704700BF00E100E0F2
:1045780080B483B000AF03463960FB7197F9073008
:10458800002B0ADB3B68DAB20C4997F907301201B5
:10459800D2B20B4483F800230AE03B68DAB2084938
:1045A800FB7903F00F03043B1201D2B20B441A76D5
:1045B80000BF0C37BD465DF8047B704700E100E0A2
:1045C80000ED00E080B489B000AFF860B9607A60AF
:1045D800FB6803F00703FB61FB69C3F10703042BC6
:1045E80028BF0423BB61FB690433062B02D9FB698E
:1045F800033B00E000237B614FF0FF32BB6902FA06
:1046080003F3DA43BB681A407B699A404FF0FF31E5
:104618007B6901FA03F3D9437B680B4013431846BF
:104628002437BD465DF8047B704780B582B000AF83
:1046380078607868FFF74CFF00BF0837BD4680BD3B
:1046480080B586B000AF0346B9607A60FB73FFF7A8
:1046580063FF78617A68B9687869FFF7B3FF024643
:1046680097F90F3011461846FFF782FF00BF183739
:10467800BD4680BD80B582B000AF0346FB7197F997
:1046880007301846FFF756FF00BF0837BD4680BD04
:1046980080B483B000AF78607B68013BB3F1807F62
:1046A80001D301230DE00A4A7B68013B5360084BA4
:1046B80000229A60064B1B68054A43F00303136007
:1046C800002318460C37BD465DF8047B704700BFD1
:1046D80010E000E080B483B000AF78607B68042B02
:1046E80044D801A252F823F01347000831470008C4
:1046F8005347000875470008054700081F4B1B680B
:104708001E4A43F00403136031E01C4B1B681B4A2C
:1047180023F0040313601A4BD3F8E030184A23F44B
:104728004003C2F8E03022E0144B1B68134A23F020
:1047380004031360124BD3F8E03023F44003104A0B
:1047480043F48003C2F8E03011E00C4B1B680B4ABD
:1047580023F0040313600A4BD3F8E03023F440033A
:10476800074A43F40003C2F8E03000E000BF00BF8E
:104778000C37BD465DF8047B704700BF10E000E0D1
:10478800000C024680B483B000AF194B1B6803F0DD
:104798000403002B02D004237B6021E0154BD3F8DF
:1047A800E03003F440033B603B68B3F5000F11D0E1
:1047B8003B68B3F5000F10D83B68002B04D03B686A
:1047C800B3F5800F03D008E000237B6008E00123E5
:1047D8007B6005E002237B6002E000237B6000BF72
:1047E8007B6818460C37BD465DF8047B704700BFF0
:1047F80010E000E0000C024680B489B000AF786099
:10480800396000237B617B683B61C2E13B681A68C1
:1048180001217B6901FA03F31340FB607B69BB61EB
:10482800FB68002B00F0B2817B68554A93425DD14A
:104838007B681B68FB6101227B6902FA03F3DB4397
:10484800FA691340FB613B685B6803F001027B690E
:1048580002FA03F3FA691343FB617B68FA691A6089
:10486800484A7B6952F833303B61464A7B69DB0032
:1048780013445B68BB61BB69DA083B69083253F8CB
:104888002230FB61BB6903F007039B000F2202FA89
:1048980003F3DB43FA691340FB61BB6903F00703C9
:1048A8009B000B2202FA03F3FA691343FB61BB690D
:1048B800DA083B690832F96943F822103B691B683A
:1048C800FB61BB695B00032202FA03F3DB43FA696D
:1048D8001340FB61BB695B00022202FA03F3FA6929
:1048E8001343FB613B69FA691A6067E03B685B68E0
:1048F800022B03D03B685B68122B45D17B69DA0831
:104908007B68083253F82230FB617B6903F00703A8
:104918009B000F2202FA03F3DB43FA691340FB61A1
:104928003B681B6903F00F027B6903F007039B00D8
:1049380002FA03F3FA691343FB617B69DA087B68BF
:104948000832F96943F822103B691B68FB61BB69AF
:104958005B00032202FA03F3DB43FA691340FB61AD
:104968003B685B6803F00302BB695B0002FA03F370
:10497800FA691343FB613B69FA691A601EE000BFDC
:1049880000000246086802083B691B68FB61BB69B6
:104998005B00032202FA03F3DB43FA691340FB616D
:1049A8003B685B6803F00302BB695B0002FA03F330
:1049B800FA691343FB613B69FA691A603B685B68F3
:1049C800012B0BD03B685B68022B07D03B685B6808
:1049D800112B03D03B685B68122B30D13B699B6875
:1049E800FB61BB695B00032202FA03F3DB43FA694C
:1049F8001340FB613B68DA68BB695B0002FA03F3AA
:104A0800FA691343FB613B69FA699A603B695B6821
:104A1800FB610122BB6902FA03F3DB43FA69134025
:104A2800FB613B685B681B0903F00102BB6902FA82
:104A380003F3FA691343FB613B69FA695A603B68FF
:104A48005B68032B07D13B685B68032B1BD13B6872
:104A58009B68012B17D03B69DB68FB61BB695B0076
:104A6800032202FA03F3DB43FA691340FB613B6854
:104A78009A68BB695B0002FA03F3FA691343FB61A6
:104A88003B69FA69DA603B685B6803F08053002B86
:104A98007CD0474A7B699B08183352F82330FB6166
:104AA8007B6903F00303DB000F2202FA03F3DB4305
:104AB800FA691340FB617B689A0A3E4B13407A6996
:104AC80002F00302D2009340FA691343FB613849AC
:104AD8007B699B081833FA6941F82320344B1B681B
:104AE800FB61FB68DB43FA691340FB613B685B6869
:104AF80003F48013002B03D0FA69FB681343FB61AE
:104B08002B4AFB6913602A4B5B68FB61FB68DB433C
:104B1800FA691340FB613B685B6803F40013002BE0
:104B280003D0FA69FB681343FB61214AFB695360B0
:104B38001F4BD3F88430FB61FB68DB43FA691340F1
:104B4800FB613B685B6803F40033002B03D0FA6910
:104B5800FB681343FB61164AFB69C2F88430144BA7
:104B6800D3F88030FB61FB68DB43FA691340FB61D3
:104B78003B685B6803F48033002B03D0FA69FB6859
:104B88001343FB610A4AFB69C2F880307B69013331
:104B98007B613B681A687B6922FA03F3002B7FF478
:104BA80035AE00BF00BF2437BD465DF8047B7047B3
:104BB800002002467F7F2F0080B483B000AF78606A
:104BC8000B467B8013467B707B78002B03D07A885A
:104BD8007B689A6102E07A887B689A6200BF0C372A
:104BE800BD465DF8047B704780B485B000AF78603F
:104BF8000B467B807B685B69FB607A88FB681340A7
:104C08001A04FB68D9437B880B401A437B689A6176
:104C180000BF1437BD465DF8047B704780B582B08D
:104C280000AF0346FB800F4BDA68FB881340002B6C
:104C380006D00C4AFB88D360FB88184600F014F8AD
:104C4800084B1A69FB881340002B06D0054AFB88DD
:104C58001361FB88184600F012F800BF0837BD46FC
:104C680080BD00BF0020024680B483B000AF034679
:104C7800FB8000BF0C37BD465DF8047B704780B4ED
:104C880083B000AF0346FB8000BF0C37BD465DF81C
:104C9800047B704780B582B000AF78607B68002BDA
:104CA80001D101238DE07B6893F84130DBB2002B02
:104CB80006D17B68002283F84020786800F085F8E8
:104CC8007B68242283F841207B681B681A687B680C
:104CD8001B6822F001021A607B685A687B681B68AF
:104CE80022F070621A617B681B689A687B681B688F
:104CF80022F400429A607B68DB68012B07D17B684D
:104D08009A687B681B6842F400429A6006E07B68F8
:104D18009A687B681B6842F404429A607B68DB6887
:104D2800022B08D17B681B685A687B681B6842F4B1
:104D380000625A6007E07B681B685A687B681B68DA
:104D480022F400625A607B681B685B687A681268A4
:104D580043F0007343F4004353607B681B68DA68D0
:104D68007B681B6822F40042DA607B681A697B68FA
:104D78005B6942EA03017B689B691A027B681B68CE
:104D88000A43DA607B68D9697B681A6A7B681B68A2
:104D98000A431A607B681B681A687B681B6842F0C4
:104DA80001021A607B6800225A647B68202283F81B
:104DB80041207B6800221A637B68002283F8422026
:104DC800002318460837BD4680BD80B483B000AFC5
:104DD800786000BF0C37BD465DF8047B7047000063
:104DE80080B588B002AFF860084611461A460346F7
:104DF8007B810B463B811346FB80FB6893F841306F
:104E0800DBB2202B40F0F9803B6A002B02D0BB8C30
:104E1800002B05D1FB684FF400725A640123EDE0C2
:104E2800FB6893F84030012B01D10223E6E0FB68D0
:104E3800012283F84020FFF71BFB78617B69009310
:104E4800192301224FF40041F86800F0D1FB034612
:104E5800002B01D00123D1E0FB68212283F84120F7
:104E6800FB68402283F84220FB6800225A64FB68F2
:104E78003A6A5A62FB68BA8C5A85FB6800225A6300
:104E8800F8883A8979897B690193BB6A009303465C
:104E9800F86800F0E1FA0346002B05D0FB68002211
:104EA80083F840200123A9E0FB685B8D9BB2FF2BB0
:104EB8000ED9FB68FF221A85FB681B8DDAB2798947
:104EC800002300934FF08073F86800F055FD0FE061
:104ED800FB685B8D9AB2FB681A85FB681B8DDAB29A
:104EE8007989002300934FF00073F86800F044FDBF
:104EF8007A69B96AF86800F0D4FB0346002B01D040
:104F080001237BE0FB685B6A1A78FB681B689A627E
:104F1800FB685B6A5A1CFB685A62FB685B8D9BB234
:104F2800013B9AB2FB685A85FB681B8D013B9AB21C
:104F3800FB681A85FB685B8D9BB2002B34D0FB683D
:104F48001B8D002B30D17B690093BB6A0022802126
:104F5800F86800F04DFB0346002B01D001234DE01B
:104F6800FB685B8D9BB2FF2B0ED9FB68FF221A856D
:104F7800FB681B8DDAB27989002300934FF08073A8
:104F8800F86800F0F9FC0FE0FB685B8D9AB2FB68EB
:104F98001A85FB681B8DDAB27989002300934FF0DC
:104FA8000073F86800F0E8FCFB685B8D9BB2002B8F
:104FB8009ED17A69B96AF86800F0BAFB0346002BFB
:104FC80001D001231AE0FB681B682022DA61FB6824
:104FD8001B685968FB681A680A4B0B405360FB68EA
:104FE800202283F84120FB68002283F84220FB68D6
:104FF800002283F84020002300E0022318461837D7
:10500800BD4680BD00E800FE80B588B002AFF860FC
:10501800084611461A4603467B810B463B811346D8
:10502800FB80FB6893F84130DBB2202B40F0FD8019
:105038003B6A002B02D0BB8C002B05D1FB684FF4D8
:1050480000725A640123F1E0FB6893F84030012BA9
:1050580001D10223EAE0FB68012283F84020FFF730
:1050680007FA78617B690093192301224FF4004104
:10507800F86800F0BDFA0346002B01D00123D5E003
:10508800FB68222283F84120FB68402283F84220F3
:10509800FB6800225A64FB683A6A5A62FB68BA8C59
:1050A8005A85FB6800225A63F8883A8979897B69AE
:1050B8000193BB6A00930346F86800F021FA03469F
:1050C800002B05D0FB68002283F840200123ADE0C7
:1050D800FB685B8D9BB2FF2B0ED9FB68FF221A85FC
:1050E800FB681B8DDAB27989524B00934FF08073BD
:1050F800F86800F041FC0FE0FB685B8D9AB2FB6832
:105108001A85FB681B8DDAB279894A4B00934FF0F8
:105118000073F86800F030FC7B690093BB6A0022DA
:105128000421F86800F064FA0346002B01D001233B
:105138007CE0FB681B685A6AFB685B6AD2B21A702B
:10514800FB685B6A5A1CFB685A62FB681B8D013B53
:105158009AB2FB681A85FB685B8D9BB2013B9AB2D9
:10516800FB685A85FB685B8D9BB2002B34D0FB68CB
:105178001B8D002B30D17B690093BB6A00228021F4
:10518800F86800F035FA0346002B01D001234DE002
:10519800FB685B8D9BB2FF2B0ED9FB68FF221A853B
:1051A800FB681B8DDAB27989002300934FF0807376
:1051B800F86800F0E1FB0FE0FB685B8D9AB2FB68D2
:1051C8001A85FB681B8DDAB27989002300934FF0AA
:1051D8000073F86800F0D0FBFB685B8D9BB2002B76
:1051E8009AD17A69B96AF86800F0A2FA0346002BE6
:1051F80001D001231AE0FB681B682022DA61FB68F2
:105208001B685968FB681A680B4B0B405360FB68B6
:10521800202283F84120FB68002283F84220FB68A3
:10522800002283F84020002300E0022318461837A4
:10523800BD4680BD0024008000E800FE80B58AB02D
:1052480002AFF8607A603B600B467B8100237B618C
:10525800FB6893F84130DBB2202B40F0DE80FB681E
:105268001B689B6903F40043B3F5004F01D1022387
:10527800D4E0FB6893F84030012B01D10223CDE044
:10528800FB68012283F84020FB68242283F8412030
:10529800FB6800225A64FB68DB68012B07D17B8915
:1052A800C3F3090343F0007343F4005306E07B891A
:1052B800C3F3090343F0007343F42053FA681268F8
:1052C8005360FFF7D5F8B861FB681B689B6903F06A
:1052D8002003202B0CBF01230023DBB2FB77FB68E4
:1052E8001B689B6903F01003102B0CBF01230023DC
:1052F800DBB2BB7734E03B68B3F1FF3F1AD0FFF76E
:10530800B7F80246BB69D31A3A689A4202D33B6897
:10531800002B0FD1FB68202283F84120FB685B6CCF
:1053280043F02002FB685A64FB68002283F840209F
:10533800012373E0FB681B689B6903F02003202BA3
:105348000CBF01230023DBB2FB77FB681B689B695A
:1053580003F01003102B0CBF01230023DBB2BB7733
:10536800FB7F002B02D1BB7F002BC4D0FB681B68DE
:105378009B6903F01003102B24D0BB6900933B6892
:1053880000222021F86800F033F90346002B0BD0E7
:10539800FB685B6C042B28D1FB681B682022DA6150
:1053A800FB6800225A6420E0FB681B682022DA614F
:1053B800FB68202283F84120FB68002283F8402004
:1053C80000232BE0FB681B681022DA61BB6900939D
:1053D8003B6800222021F86800F00AF90346002BF8
:1053E80003D1FB681B682022DA617B6901337B618A
:1053F8007B697A689A423FF64EAFFB68202283F8B1
:105408004120FB685B6C43F02002FB685A64FB6830
:10541800002283F84020012300E0022318462037A9
:10542800BD4680BD80B483B000AF78607B6893F8D8
:105438004130DBB218460C37BD465DF8047B704737
:1054480080B483B000AF78607B685B6C18460C371B
:10545800BD465DF8047B704780B586B002AFF86042
:10546800084611461A4603467B810B463B81134684
:10547800FB80FB88DAB27989204B00934FF0807368
:10548800F86800F079FAFA69B969F86800F009F97A
:105498000346002B01D001232CE0FB88012B05D10A
:1054A8003B89DAB2FB681B689A6215E03B891B0AE4
:1054B8009BB2DAB2FB681B689A62FA69B969F86844
:1054C80000F0EFF80346002B01D0012312E03B89DE
:1054D800DAB2FB681B689A62FB690093BB69002219
:1054E8008021F86800F084F80346002B01D00123DE
:1054F80000E0002318461037BD4680BD002000801C
:1055080080B586B002AFF860084611461A460346D1
:105518007B810B463B811346FB80FB88DAB2798995
:10552800204B00930023F86800F026FAFA69B9695D
:10553800F86800F0B6F80346002B01D001232CE0F0
:10554800FB88012B05D13B89DAB2FB681B689A629C
:1055580015E03B891B0A9BB2DAB2FB681B689A62AA
:10556800FA69B969F86800F09CF80346002B01D085
:10557800012312E03B89DAB2FB681B689A62FB6977
:105588000093BB6900224021F86800F031F8034617
:10559800002B01D0012300E0002318461037BD4638
:1055A80080BD00BF0020008080B483B000AF786069
:1055B8007B681B689B6903F00203022B03D17B689D
:1055C8001B6800229A627B681B689B6903F00103D1
:1055D800012B07D07B681B689A697B681B6842F0BF
:1055E80001029A6100BF0C37BD465DF8047B704725
:1055F80080B584B000AFF860B9603B601346FB71BA
:105608003BE0BA693968F86800F0D6F80346002B21
:1056180001D0012341E03B68B3F1FF3F2DD0FEF7F5
:1056280027FF0246BB69D31A3A689A4202D33B68FD
:10563800002B22D1FB681B689A69BB681340BA68C3
:105648009A420CBF01230023DBB21A46FB799A4227
:1056580013D1FB685B6C43F02002FB685A64FB685B
:10566800202283F84120FB68002283F84220FB684F
:10567800002283F8402001230FE0FB681B689A6929
:10568800BB681340BA689A420CBF01230023DBB2FF
:105698001A46FB799A42B4D0002318461037BD4603
:1056A80080BD80B584B000AFF860B9607A6033E03F
:1056B8007A68B968F86800F07FF80346002B01D0D3
:1056C800012331E0BB68B3F1FF3F25D0FEF7D0FEE0
:1056D80002467B68D31ABA689A4202D3BB68002B89
:1056E8001AD1FB681B689B6903F00203022B13D0D5
:1056F800FB685B6C43F02002FB685A64FB6820225D
:1057080083F84120FB68002283F84220FB680022CE
:1057180083F84020012307E0FB681B689B6903F0BE
:105728000203022BC4D1002318461037BD4680BDA2
:1057380080B584B000AFF860B9607A602FE07A680D
:10574800B968F86800F038F80346002B01D0012347
:105758002DE0FEF78DFE02467B68D31ABA689A429E
:1057680002D3BB68002B1AD1FB681B689B6903F046
:105778002003202B13D0FB685B6C43F02002FB68EE
:105788005A64FB68202283F84120FB68002283F8D2
:105798004220FB68002283F84020012307E0FB68D1
:1057A8001B689B6903F02003202BC8D100231846EF
:1057B8001037BD4680BD000080B58AB000AFF860E4
:1057C800B9607A60002387F82730FB681B689B69FB
:1057D800BB6100233B627B68FB61BB6903F010037C
:1057E800002B68D0FB681B681022DA6149E0BB68AF
:1057F800B3F1FF3F45D0FEF73BFE0246FB69D31AE3
:10580800BA689A4202D3BB68002B3AD1FB681B687E
:105818005B6803F480437B61FB6893F84230FB7458
:10582800FB681B689B6903F40043B3F5004F21D163
:105838007B69B3F5804F1DD0FB7C202B1AD0FB6809
:105848001B685A68FB681B6842F480425A60FEF77E
:105858000FFEF8610EE0FEF70BFE0246FB69D31A55
:10586800192B07D93B6A43F020033B62012387F8D1
:10587800273006E0FB681B689B6903F02003202B98
:10588800E9D1FB681B689B6903F02003202B03D038
:1058980097F82730002BAAD097F82730002B03D190
:1058A800FB681B682022DA613B6A43F004033B6211
:1058B800012387F82730FB681B689B69BB61BB69BC
:1058C80003F48073002B0BD03B6A43F001033B6267
:1058D800FB681B684FF48072DA61012387F8273070
:1058E800BB6903F48063002B0BD03B6A43F00803C9
:1058F8003B62FB681B684FF48062DA61012387F81A
:105908002730BB6903F40073002B0BD03B6A43F0CC
:1059180002033B62FB681B684FF40072DA610123E3
:1059280087F8273097F82730002B1CD0F868FFF746
:105938003BFEFB681B685968FB681A680D4B0B40F7
:105948005360FB685A6C3B6A1A43FB685A64FB68ED
:10595800202283F84120FB68002283F84220FB685C
:10596800002283F8402097F8273018462837BD468C
:1059780080BD00BF00E800FE80B487B000AFF860CB
:105988007B600B467B8113467B727B89C3F30902DC
:105998007B7A1B0403F47F031A437B681A433B6A30
:1059A800134323F000437B61FB681B685A683B6A1A
:1059B8005B0D03F48061084B0B43DB4302EA0301F0
:1059C800FB681B687A690A435A6000BF1C37BD46EA
:1059D8005DF8047B704700BFFF63FF0380B483B0AA
:1059E80000AF786039607B6893F84130DBB2202BD8
:1059F80038D17B6893F84030012B01D1022332E083
:105A08007B68012283F840207B68242283F84120A8
:105A18007B681B681A687B681B6822F001021A60A1
:105A28007B681B681A687B681B6822F480521A60BE
:105A38007B681B6819687B681B683A680A431A60A8
:105A48007B681B681A687B681B6842F001021A6051
:105A58007B68202283F841207B68002283F840205D
:105A6800002300E0022318460C37BD465DF8047B8E
:105A7800704780B485B000AF786039607B6893F870
:105A88004130DBB2202B39D17B6893F84030012BB1
:105A980001D1022333E07B68012283F840207B6830
:105AA800242283F841207B681B681A687B681B687E
:105AB80022F001021A607B681B681B68FB60FB68A8
:105AC80023F47063FB603B681B02FA681343FB60B6
