:020000040800F2
:1000000000000C20310F0008652000086D2000085A
:10001000752000087D20000885200008810F000859
:100020000000000000000000000000008D2000081B
:100030009B20000800000000A9200008B72000084D
:10004000810F0008810F0008810F0008810F000850
:10005000810F0008810F0008810F0008810F000840
:10006000810F0008810F0008810F0008810F000830
:10007000810F0008810F0008810F0008810F000820
:10008000810F0008810F0008810F0008810F000810
:10009000810F0008810F0008C5200008810F0008AB
:1000A000E1200008810F0008810F0008810F00087F
:1000B000810F0008810F0008810F0008810F0008E0
:1000C000810F0008810F0008810F0008810F0008D0
:1000D000810F0008810F0008810F0008810F0008C0
:1000E000810F0008810F0008810F0008810F0008B0
:1000F000810F0008810F0008810F0008810F0008A0
:10010000810F0008810F0008810F0008810F00088F
:10011000810F0008810F0008810F0008810F00087F
:10012000810F0008810F0008810F0008810F00086F
:10013000810F0008810F0008810F0008810F00085F
:10014000810F0008810F0008810F0008810F00084F
:10015000810F0008810F0008810F0008810F00083F
:10016000810F0008810F0008810F0008810F00082F
:10017000810F0008810F0008810F0008810F00081F
:10018000810F0008810F0008810F0008810F00080F
:10019000810F0008810F0008810F0008810F0008FF
:1001A000810F0008810F0008810F0008810F0008EF
:1001B000810F0008810F0008810F0008810F0008DF
:1001C000810F0008810F0008810F0008810F0008CF
:1001D000810F0008810F0008810F0008810F0008BF
:1001E000810F0008810F0008810F0008810F0008AF
:1001F000810F0008810F0008810F0008810F00089F
:10020000810F0008810F0008810F0008810F00088E
:10021000810F0008810F0008810F0008810F00087E
:10022000810F0008810F0008810F0008810F00086E
:08023000810F0008810F000896
:1002380010B5054C237833B9044B13B10448AFF318
:1002480000800123237010BD300C00200000000046
:10025800A4EB000808B5034B1BB103490348AFF3EF
:10026800008008BD00000000340C0020A4EB00084A
:10027800034613F8012B002AFBD1181A01387047DE
:1002880081F0004102E000BF83F0004330B54FEA3F
:1002980041044FEA430594EA050F08BF90EA020FAC
:1002A8001FBF54EA000C55EA020C7FEA645C7FEA3F
:1002B800655C00F0E2804FEA5454D4EB5555B8BF62
:1002C8006D420CDD2C4480EA020281EA030382EAD3
:1002D800000083EA010180EA020281EA0303362D65
:1002E80088BF30BD11F0004F4FEA01314FF4801C38
:1002F8004CEA113102D0404261EB410113F0004F4A
:100308004FEA03334CEA133302D0524263EB430300
:1003180094EA050F00F0A780A4F10104D5F1200E9E
:100328000DDB02FA0EFC22FA05F2801841F10001F9
:1003380003FA0EF2801843FA05F359410EE0A5F1CD
:1003480020050EF1200E012A03FA0EFC28BF4CF0FE
:10035800020C43FA05F3C01851EBE37101F00045B4
:1003680007D54FF0000EDCF1000C7EEB00006EEBC1
:100378000101B1F5801F1BD3B1F5001F0CD349084B
:100388005FEA30004FEA3C0C04F101044FEA4452A2
:1003980012F5800F80F09A80BCF1004F08BF5FEA29
:1003A800500C50F1000041EB045141EA050130BD09
:1003B8005FEA4C0C404141EB0101013C28BFB1F51B
:1003C800801FE9D291F0000F04BF01460020B1FA66
:1003D80081F308BF2033A3F10B03B3F120020CDA39
:1003E8000C3208DD02F1140CC2F10C0201FA0CF017
:1003F80021FA02F10CE002F11402D8BFC2F1200C7C
:1004080001FA02F120FA0CFCDCBF41EA0C01904031
:10041800E41AA2BF01EB0451294330BD6FEA04047A
:100428001F3C1CDA0C340EDC04F11404C4F1200265
:1004380020FA04F001FA02F340EA030021FA04F377
:1004480045EA030130BDC4F10C04C4F1200220FACE
:1004580002F001FA04F340EA0300294630BD21FA0C
:1004680004F0294630BD94F0000F83F4801306BFD2
:1004780081F480110134013D4EE77FEA645C18BFC6
:100488007FEA655C29D094EA050F08BF90EA020F5D
:1004980005D054EA000C04BF1946104630BD91EA55
:1004A800030F1EBF0021002030BD5FEA545C05D158
:1004B8004000494128BF41F0004130BD14F5800497
:1004C8003CBF01F5801130BD01F0004545F0FE410B
:1004D80041F470014FF0000030BD7FEA645C1ABF40
:1004E800194610467FEA655C1CBF0B46024650EA77
:1004F800013406BF52EA033591EA030F41F40021A3
:1005080030BD00BF90F0000F04BF0021704730B528
:100518004FF4806404F132044FF000054FF00001FD
:1005280050E700BF90F0000F04BF0021704730B5BE
:100538004FF4806404F1320410F0004548BF404293
:100548004FF000013EE700BF42004FEAE2014FEAE8
:1005580031014FEA02701FBF12F07F4393F07F4FC3
:1005680081F06051704732F07F4208BF704793F0C6
:100578007F4F04BF41F40021704730B54FF46074D9
:1005880001F0004521F000411CE700BF50EA0102DC
:1005980008BF704730B54FF000050AE050EA010285
:1005A80008BF704730B511F0004502D5404261EBF5
:1005B80041014FF4806404F132045FEA915C3FF436
:1005C800D8AE4FF003025FEADC0C18BF03325FEAD3
:1005D800DC0C18BF033202EBDC02C2F1200300FA84
:1005E80003FC20FA02F001FA03FE40EA0E0021FAA9
:1005F80002F11444BDE600BF70B54FF0FF0C4CF497
:10060800E06C1CEA11541DBF1CEA135594EA0C0F48
:1006180095EA0C0F00F0DEF82C4481EA030621EA83
:100628004C5123EA4C5350EA013518BF52EA0335BE
:1006380041F4801143F4801338D0A0FB02CE4FF070
:100648000005E1FB02E506F00042E0FB03E54FF0A0
:100658000006E1FB03569CF0000F18BF4EF0010E98
:10066800A4F1FF04B6F5007F64F5407404D25FEA94
:100678004E0E6D4146EB060642EAC62141EA555147
:100688004FEAC52040EA5E504FEACE2EB4F1FD0C89
:1006980088BFBCF5E06F1ED8BEF1004F08BF5FEA07
:1006A800500E50F1000041EB045170BD06F00046B9
:1006B80046EA010140EA020081EA0301B4EB5C0466
:1006C800C2BFD4EB0C0541EA045170BD41F480115E
:1006D8004FF0000E013C00F3AB8014F1360FDEBF83
:1006E800002001F0004170BDC4F10004203C35DA5F
:1006F8000C341BDC04F11404C4F1200500FA05F3E2
:1007080020FA04F001FA05F240EA020001F0004282
:1007180021F0004110EBD37021FA04F642EB0601F8
:100728005EEA430E08BF20EAD37070BDC4F10C0422
:10073800C4F1200500FA04F320FA05F001FA04F2E6
:1007480040EA020001F0004110EBD37041F10001D2
:100758005EEA430E08BF20EAD37070BDC4F12005DD
:1007680000FA05F24EEA020E20FA04F301FA05F245
:1007780043EA020321FA04F001F0004121FA04F2ED
:1007880020EA020000EBD3705EEA430E08BF20EABD
:10079800D37070BD94F0000F0FD101F000464000F7
:1007A80041EB010111F4801F08BF013CF7D041EA79
:1007B800060195F0000F18BF704703F0004652007D
:1007C80043EB030313F4801F08BF013DF7D043EA4E
:1007D8000603704794EA0C0F0CEA135518BF95EA04
:1007E8000C0F0CD050EA410618BF52EA4306D1D18B
:1007F80081EA030101F000414FF0000070BD50EAAA
:10080800410606BF1046194652EA430619D094EA33
:100818000C0F02D150EA013613D195EA0C0F05D11D
:1008280052EA03361CBF104619460AD181EA030171
:1008380001F0004141F0FE4141F470014FF0000029
:1008480070BD41F0FE4141F4780170BD70B54FF0C4
:10085800FF0C4CF4E06C1CEA11541DBF1CEA135544
:1008680094EA0C0F95EA0C0F00F0A7F8A4EB050426
:1008780081EA030E52EA03354FEA013100F088801D
:100888004FEA03334FF0805545EA131343EA1263E6
:100898004FEA022245EA111545EA10654FEA00269B
:1008A8000EF000419D4208BF964244F1FD0404F554
:1008B800407402D25B084FEA3202B61A65EB0305B0
:1008C8005B084FEA32024FF480104FF4002CB6EB6D
:1008D800020E75EB030E22BFB61A754640EA0C00ED
:1008E8005B084FEA3202B6EB020E75EB030E22BF2D
:1008F800B61A754640EA5C005B084FEA3202B6EB6E
:10090800020E75EB030E22BFB61A754640EA9C002C
:100918005B084FEA3202B6EB020E75EB030E22BFFC
:10092800B61A754640EADC0055EA060E18D04FEABA
:10093800051545EA16754FEA06164FEAC30343EA5A
:1009480052734FEAC2025FEA1C1CC0D111F4801F27
:100958000BD141EA00014FF000004FF0004CB6E720
:1009680011F4801F04BF01430020B4F1FD0C88BFBF
:10097800BCF5E06F3FF6AFAEB5EB030C04BFB6EBCA
:10098800020C5FEA500C50F1000041EB045170BDBD
:100998000EF0004E4EEA113114EB5C04C2BFD4EBEA
:1009A8000C0541EA045170BD41F480114FF0000E6E
:1009B800013C90E645EA060E8DE60CEA135594EAEA
:1009C8000C0F08BF95EA0C0F3FF43BAF94EA0C0FED
:1009D8000AD150EA01347FF434AF95EA0C0F7FF462
:1009E80025AF104619462CE795EA0C0F06D152EAB6
:1009F80003353FF4FDAE1046194622E750EA41069A
:100A080018BF52EA43067FF4C5AE50EA41047FF4AA
:100A18000DAF52EA43057FF4EBAE12E74FF0FF3C0F
:100A280006E000BF4FF0010C02E000BF4FF0010CE0
:100A38004DF804CD4FEA410C7FEA6C5C4FEA430C59
:100A480018BF7FEA6C5C1BD001B050EA410C0CBFA8
:100A580052EA430C91EA030F02BF90EA020F00200A
:100A6800704710F1000F91EA030F58BF994208BF71
:100A780090422CBFD8176FEAE37040F0010070472E
:100A88004FEA410C7FEA6C5C02D150EA013C07D185
:100A98004FEA430C7FEA6C5CD6D152EA033CD3D0D0
:100AA8005DF8040B704700BF8446104662468C46CA
:100AB8001946634600E000BF01B5FFF7B7FF0028FD
:100AC80048BF10F1000F01BD4DF808EDFFF7F4FF26
:100AD8000CBF012000205DF808FB00BF4DF808EDB1
:100AE800FFF7EAFF34BF012000205DF808FB00BFD4
:100AF8004DF808EDFFF7E0FF94BF012000205DF8F6
:100B080008FB00BF4DF808EDFFF7CEFF94BF0120AA
:100B180000205DF808FB00BF4DF808EDFFF7C4FFA3
:100B280034BF012000205DF808FB00BF4FEA410CEC
:100B38007FEA6C5C02D150EA013C0AD14FEA430CCF
:100B48007FEA6C5C02D152EA033C02D14FF000000C
:100B580070474FF0010070474FEA410212F500124A
:100B680015D211D56FF47873B3EB625212D94FEAEC
:100B7800C12343F0004343EA505311F0004F23FAD6
:100B880002F018BF404270474FF00000704750EA2B
:100B9800013005D111F0004008BF6FF000407047E8
:100BA8004FF00000704700BF53B94AB9002908BF89
:100BB80000281CBF4FF0FF314FF0FF3000F0B2B9F2
:100BC800ADF1080C6DE904CE00F006F8DDF804E09C
:100BD800DDE9022304B070472DE9F04F8C46099EE9
:100BE80004460F46002B48D18A4215465ED9B2FA10
:100BF80082F33BB1C3F120029F409D409C4020FA04
:100C080002F217434FEA154E1FFA85FC220CB7FB78
:100C1800FEF10EFB117701FB0CF042EA074290420D
:100C280007D9AA1801F1FF3702D2904200F2588181
:100C38003946121AA4B2B2FBFEF00EFB102200FBDA
:100C48000CFC44EA0244A4450BD92C1900F1FF32EC
:100C58002CBF01270027A44502D9002F00F04381AB
:100C6800104640EA0140A4EB0C0400211EB1DC4010
:100C78000023C6E90043BDE8F08F8B4206D90EB1C8
:100C8800C6E9000100210846BDE8F08FB3FA83F1F8
:100C9800002951D16345C0F01681824240F2138188
:100CA8000846002EE7D0C6E90047E4E7002A00F02E
:100CB800AF80B2FA82F3002B40F0C2808A1A4FEA62
:100CC800154EAFB20121200CB2FBFEFC0EFB1C221C
:100CD80040EA024207FB0CF090420ED9AA180CF128
:100CE800FF382CBF4FF001094FF00009904203D99B
:100CF800B9F1000F00F0F080C446121AA4B2B2FB9A
:100D0800FEF00EFB102200FB07F744EA0244A7425C
:100D18000ED92C1900F1FF322CBF4FF0010E4FF005
:100D2800000EA74203D9BEF1000F00F0D280104692
:100D3800E41B40EA0C4099E7C1F120058B400CFA0E
:100D480001F400FA01F922FA05F72CFA05FC8A40A9
:100D58001F4320FA05F3380C23431FFA87FE1C0CA7
:100D6800BCFBF0F800FB18CC44EA0C4408FB0EFC72
:100D7800A4450ED93C1908F1FF3A2CBF4FF0010BDE
:100D88004FF0000BA44503D9BBF1000F00F0B88069
:100D9800D046A4EB0C041FFA83FCB4FBF0F300FB71
:100DA800134403FB0EFE4CEA0444A6450ED93C1935
:100DB80003F1FF302CBF4FF0010C4FF0000CA6459B
:100DC80003D9BCF1000F00F09F80034643EA0840B6
:100DD800A4EB0E04A0FB02EC64457346E04602D384
:100DE80007D1F14505D2BEEB02036CEB070C0138C5
:100DF800E0465EB1B9EB030264EB080404FA05F5BA
:100E080022FA01F3CC401D43C6E90054002132E721
:100E180042082F464B08AC4642EAC172AE46C407A8
:100E2800110C92B241EA034142EA0142B1FBF5F1E9
:100E3800B3FBF5F01F23A2EB0C0241EA004142E7A5
:100E48009D40C3F1200299409C402CFA02FC4FEAD5
:100E5800154E20FA02F2AFB2BCFBFEF80A430EFBB5
:100E680018CC110C41EA0C4108FB07FC8C4550D901
:100E7800691808F1FF302CBF4FF001094FF0000945
:100E88008C4502D9B9F1000F30D0A1EB0C01B1FBB0
:100E9800FEF808FB07FC0EFB181192B242EA014269
:100EA800624534D2AA1808F1FF312CBF4FF001096E
:100EB8004FF000096245BED2B9F1000FBBD1A8F1CD
:100EC80002012A44B7E7841A6CEB03020120174693
:100ED800E7E62C4402382BE7ACF1020C2A440CE775
:100EE80002392A44A5E62C440238BAE6A5EB0C0CD4
:100EF800A8F102006144B1FBFEF808FB07FCCAE751
:100F0800A8F102083C4444E7023B3C445EE7414602
:100F180091E7A1EB0C014046B1FBFEF808FB07FC8A
:100F2800B9E700BF704700BFDFF834D002F0A6FB76
:100F3800002103E00B4B5B58435004310A480B4B2C
:100F480042189A42F6D30A4A02E0002342F8043BC8
:100F5800084B9A42F9D30BF025FF00F02DFCFEE771
:100F680000000C208C77020800000020300C0020C4
:100F7800300C0020D61F0020FEE7000080B582B0AC
:100F880000AF374B374A1A60354B374A5A60344BF3
:100F9800364A9A60324B364ADA6000F03CF90A2049
:100FA80000F02EF933492E4801F06FFF314B1B78C2
:100FB8006B2B07D02F4B1B7819462F480BF044FD9D
:100FC80000BFFDE70121264801F070FF2B492448A6
:100FD80001F092FF294B1B78002BF7D10121204803
:100FE80001F0E1FE01211E4801F09CFD03211C488F
:100FF80001F092FA03211A4801F024FC0221184852
:1010080001F064FA0821164801F0F6FB01211448A2
:1010180001F015FF0021124802F0F2F900211048F2
:1010280002F014FA3B4619460D4802F091F93B7854
:1010380043F001033B703B7843F002033B703B46AF
:101048001946074801F0D4FF0421054801F098FF2C
:101058000121034801F06EFF00BF0837BD4680BD7F
:101068007C0C0020B1110008DD11000809120008ED
:10107800900C0020780C0020C0EB0008790C0020B0
:1010880080B582B000AFFB1D1946404801F070FDE5
:10109800FB79002B29D0062200213D480BF01AFECF
:1010A8003B493A4801F032FE394BB3F90030184653
:1010B80001F0C0F9F0EE407A364BC3ED007A344BBC
:1010C800B3F90230184601F0B5F9F0EE407A314B29
:1010D800C3ED017A2E4BB3F90430184601F0AAF992
:1010E800F0EE407A2B4BC3ED027AFB1D19462748D8
:1010F80001F05CFDFB79002B29D00622002126484F
:101108000BF0E8FD2449214801F0B3FD224BB3F967
:101118000030184601F0A6F9F0EE407A1F4BC3EDF7
:10112800007A1D4BB3F90230184601F09BF9F0EE36
:10113800407A1A4BC3ED017A174BB3F904301846BD
:1011480001F090F9F0EE407A144BC3ED027AFB1DE2
:1011580019460E4801F048FDFB79002B11D0104BC1
:1011680000221A800E49094801F05CFD0C4BB3F9C6
:101178000030184601F08EF9F0EE407A094BC3EDC5
:10118800007A00BF0837BD4680BD00BF7C0C002038
:101198004C0C00205C0C0020540C0020680C002033
:1011A8005A0C0020740C002080B584B000AFF860A1
:1011B8007A601A460B46FB7213463B81FB7A99B25A
:1011C8003B897A68D72000F087F80346184610371D
:1011D800BD4680BD80B584B000AFF8607A601A461D
:1011E8000B46FB7213463B81FB7A99B23B897A68BE
:1011F800D72000F0A3F8034618461037BD4680BD37
:1012080080B582B000AF7860786802F035FB00BF27
:101218000837BD4680BD80B400AF00BFBD465DF84D
:10122800047B704780B582B000AF00237B60194B08
:10123800194A1A60194B1B685A1C18490A60002B76
:1012480022D1144803F0E6FA0346002B1CD11148BA
:1012580000F0EAF87B68002B16D10E4800F0A0F8E1
:101268000346002B03D06FF007037B600CE00021DE
:10127800084803F0ABFD0346002B03D06FF00703CB
:101288007B6001E000237B607B6818460837BD4619
:1012980080BD00BF900C002000580040E40C0020E6
:1012A80080B584B000AF03463960FB800023FB6043
:1012B800F9884FF480533A68064803F0B7F90346B3
:1012C800002B02D06FF00203FB60FB681846103752
:1012D800BD4680BD900C002080B58AB004AFBA60CE
:1012E8001A460346FB810B46BB811346FB8000234D
:1012F8007B61BA89F9894FF480530293FB88019383
:10130800BB68009301230C4802F062FF0346002BE0
:101318000CD0094803F08CFA0346042B03D16FF074
:1013280065037B6102E06FF003037B617B6918460C
:101338001837BD4680BD00BF900C002080B58AB02C
:1013480004AFBA601A460346FB810B46BB811346BD
:10135800FB8000237B61BA89F9894FF4805302939B
:10136800FB880193BB68009301230C4803F044F801
:101378000346002B0CD0094803F05AFA0346042B05
:1013880003D16FF065037B6102E06FF003037B61BB
:101398007B6918461837BD4680BD00BF900C0020F9
:1013A80080B584B000AF78600023FB737B681C4A6B
:1013B8001A607B681B4A5A607B6800229A607B68C7
:1013C8000122DA607B6800221A617B6800225A6178
:1013D8007B6800229A617B680022DA617B680022C0
:1013E8001A62786802F04EFE0346002B01D00123F2
:1013F800FB730021786803F0E9FC0346002B01D059
:101408000123FB730021786803F02BFD0346002BB2
:1014180001D00123FB73FB7B18461037BD4680BD06
:1014280000580040EC9D903080B5BCB000AF7860AB
:1014380007F11003C822002118460BF04BFC4FF0AF
:1014480080024FF00003C7E904230023FB6707F17C
:101458001003184605F00AF9254BD3F88C30244AB6
:1014680043F08003C2F88C30214BD3F88C3003F062
:101478008003FB60FB681023C7F8DC301223C7F831
:10148800E0300023C7F8E4300023C7F8E83004232D
:10149800C7F8EC3007F1DC031946164802F0A4FB44
:1014A8002023C7F8DC301223C7F8E0300023C7F840
:1014B800E4300023C7F8E8300423C7F8EC3007F11C
:1014C800DC0319460B4802F08FFB094BD3F89C301C
:1014D800074A43F48003C2F89C30054BD3F89C308C
:1014E80003F48003BB60BB6800BFF037BD4680BD16
:1014F800000C0246001C024280B58AB000AF07F11A
:10150800140300221A605A609A60DA601A613E4B2E
:10151800D3F88C303C4A43F00403C2F88C303A4B81
:10152800D3F88C3003F004033B613B69364BD3F8A6
:101538008C30354A43F08003C2F88C30324BD3F8F4
:101548008C3003F08003FB60FB682F4BD3F88C30A2
:101558002D4A43F00103C2F88C302B4BD3F88C3062
:1015680003F00103BB60BB68274BD3F88C30264AD5
:1015780043F01003C2F88C30234BD3F88C3003F0BF
:1015880010037B607B680122C021204802F00CFD1B
:101598004FF400537B611E4BBB610023FB6107F1D5
:1015A800140319461B4802F01FFBC0237B6101236B
:1015B800BB610023FB6100233B6207F1140319465A
:1015C800124802F011FB4FF400637B61104BBB61C2
:1015D8000023FB6107F1140319460F4802F004FBCE
:1015E80000220021162002F023FA162002F03AFA0F
:1015F80000220021182002F01BFA182002F032FA0B
:1016080000BF2837BD4680BD000C0246001C0242C0
:1016180000001110000802420010024280B500AF1D
:10162800002003F06BFC0346002B01D000F048FAC1
:1016380003F084FC0346002B01D000F041FA00BF00
:1016480080BD000080B584B000AFF860B9607A60F2
:101658007B689AB24FF0FF33B968044807F036FD4B
:101668007B6818461037BD4680BD00BFF41D0020BA
:1016780080B582B000AF174B3B603B46002219464D
:10168800154800F0ABFB03467B603B79002B0AD082
:101698003B7919467B68C3F317231A460F480BF0AA
:1016A800D3F900F00DFA0C4B1B680021184600F026
:1016B80013FC03460A4A1360074B1B6800211846AF
:1016C80000F024FC0346074A136000BF0837BD46F4
:1016D80080BD00BF700F0020F00C0020F4EB000864
:1016E800301D0020341D002080B584B000AF786024
:1016F8003960154B1B687A685A60144B1B683A6846
:101708005A60134B1B68104A1168104A1268184631
:1017180000F052FCF860FB68012B11D00C4B1B68E1
:10172800184600F039FB0346BB603B7A1946BB6894
:10173800C3F317231A4607480BF086F900F0C0F9DF
:1017480000BF1037BD4680BD301D0020341D00206D
:10175800F00C002020EC000880B487B000AF78605F
:1017680039607B681B687B6100233B610123FB6058
:1017780017E0FB689B007A681344D3ED007A97ED75
:10178800057AB4EEE77AF1EE10FA07D5FB689B000C
:101798007A6813441B687B61FB683B61FB68013313
:1017A800FB60FA683B689A42E3D33B6918461C37EA
:1017B800BD465DF8047B70472DE9F04F93B00AAF42
:1017C80001F094FF00F070F900F012F9FFF794FEB1
:1017D800FFF724FF00F03EFDFFF724FD0A21D72084
:1017E800FFF75EFDFFF7CAFBFFF742FF0023FB612F
:1017F800714B1B68002BFBD06F4B00221A60FFF760
:101808003FFC6E4B1B68002B00F0908000224021AB
:101818006B4802F0C9FB6B4B93ED007ADFED6A6A07
:10182800C7EE267A694AFB699B001344C3ED007A28
:10183800644B93ED017AFB690133DFED636AC7EE10
:10184800267A624A9B001344C3ED007A5D4B93ED00
:10185800027AFB690233DFED5C6AC7EE267A5B4ADF
:101868009B001344C3ED007A594B93ED007AFB6952
:101878000333DFED586AC7EE267A544A9B001344B7
:10188800C3ED007A524B93ED017AFB690433DFED27
:10189800516AC7EE267A4D4A9B001344C3ED007A7D
:1018A8004B4B93ED027AFB690533DFED4A6AC7EECD
:1018B800267A464A9B001344C3ED007AFB69063337
:1018C800FB61FB699C2B93D10023FB6142480BF021
:1018D80023F942493D48FFF707FF0023BB610FE0AA
:1018E8003E4ABB699B0013441B681846FEF72CFE52
:1018F80002460B463A480BF0A7F8BB690133BB61B7
:10190800BB69022BECD903213448FFF725FF786126
:101918007969344A7B6952F823301A4632480BF009
:1019280093F88021264802F057FB61E701F098FF01
:101938000646244B1B681846FEF706FEC7E9020157
:10194800204B5B681846FEF7FFFD04460D461D4B0D
:101958009B681846FEF7F8FD804689461C4B1B68B5
:101968001846FEF7F1FD82468B46194B5B68184610
:10197800FEF7EAFDC7E90001154B9B681846FEF71C
:10198800E3FD02460B46CDE9082397ED007B8DED7C
:10199800067BCDE904ABCDE90289CDE90045D7E95D
:1019A8000223314611480BF04FF801224021044828
:1019B80002F0FAFA1CE700BFE80C0020EC0C00204B
:1019C800001C02425C0C002000007A45F40C002048
:1019D800680C0020002474494CEC0008640F0020B7
:1019E80060EC00080000002068EC000874EC0008B7
:1019F80080B59EB000AF07F1180360220021184699
:101A08000BF068F93B4600221A605A609A60DA6067
:101A18001A615A614FF4403003F0A0FA0346002BD4
:101A280001D000F04DF81023BB6101237B63102324
:101A3800BB634FF08043FB6302233B6501237B6557
:101A48000023FB650123BB6550233B6602237B66AD
:101A58000223BB660223FB6600233B6700237B67E8
:101A680007F11803184603F055FB0346002B01D075
:101A780000F026F81F233B6003237B600023BB6034
:101A88000023FB6000233B6100237B613B4604216C
:101A9800184604F01BFA0346002B01D000F010F89A
:101AA80000BF7837BD4680BD80B500AF022003F087
:101AB800E1FA0346002B01D000F002F800BF80BD18
:101AC80080B400AF72B600BF00BFFDE780B582B03A
:101AD80000AF786039603A680121424808F0FCF8A4
:101AE8000346002B73D03F4B1B6803F6E8233E4A9E
:101AF80093603C4B1B6803F6E8233B4AD360394BA1
:101B08001B6803F65853394A9360364B1B6803F633
:101B18005853364AD360334B1B684033344A93607A
:101B2800304B1B684033324AD3602E4B1B6840331E
:101B3800304A93602B4B1B6840332E4AD360294BA5
:101B48001B6803F544632C4A9360264B1B6803F516
:101B58004463294AD360234B1B68284A9360214B6E
:101B68001B68264AD3601F4B1B6803F5B063244AE1
:101B780093601C4B1B6803F5B063214AD360194B73
:101B88001B68204A9360174B1B681E4AD360154B8D
:101B98001B6803F580731C4A9360124B1B6803F59E
:101BA8008073194AD3600F4B1B68184A93600D4B1A
:101BB8001B68164AD3600B4B1B680C33144A93609E
:101BC800084B1B680C33124AD360012305E013222B
:101BD8003021786808F000F9002318460837BD4618
:101BE80080BD00BF381D00200C0000201C01002013
:101BF8001C0000202C0000202C0100203C000020AC
:101C08004C0000205C0000206C0000207C000020BC
:101C18008C00002080B582B000AF786039603A68E7
:101C28000121544808F008F80346002B00F098807A
:101C3800514B1B6843F080434F4A13604D4B1B6860
:101C48004D4A93604B4B1B684B4AD3604B4B1B6808
:101C580043F08043494A1360464B1B6803F5106301
:101C6800464A9360434B1B6803F51063434AD360AD
:101C7800434B1B6843F08043414A13603D4B1B684C
:101C880003F518633E4A93603A4B1B6803F51863E3
:101C98003B4AD3603B4B1B6843F08043394A13608F
:101CA800344B1B6803F50653364A9360314B1B6867
:101CB80003F50653334AD360334B1B6843F0804324
:101CC800314A13602B4B1B6803F507532E4A936068
:101CD800284B1B6803F507532B4AD3602B4B1B6813
:101CE80043F08043294A1360224B1B6803F5C03335
:101CF80003F5E073254A93601E4B1B6803F5C03358
:101D080003F5E073214AD360214B1B6843F08043FD
:101D18001F4A1360174B1B6803F5C133C0331C4AB5
:101D28009360144B1B6803F5C133C033184AD36062
:101D3800184B1B6843F08043164A13600D4B1B6811
:101D480003F5C23303F5E073124A9360094B1B682D
:101D580003F5C23303F5E0730E4AD360012305E0AF
:101D680012223021786808F037F80023184608371F
:101D7800BD4680BD3C1D00209C000020AC0000201A
:101D8800BC000020CC000020DC000020EC0000207B
:101D9800FC0000200C01002080B582B000AF786004
:101DA800786808F00DF8034618460837BD4680BD28
:101DB80080B584B002AF78603960002301930523B1
:101DC80000930123044A3968786808F0F3F8034659
:101DD80018460837BD4680BDB809002080B594B0C4
:101DE80000AFF860B9607A600021F868FFF7E0FF9B
:101DF8000346BB6497F84830002B01D0BB6C67E002
:101E080007F11003184600F0E7F8034683F00103D2
:101E1800DBB2002B08D0FB681B681846FFF7BCFF35
:101E28000346BB64BB6C53E00023A7F84E3012E0B6
:101E3800B7F84E10B7F84E309B00BA6813441A68CA
:101E480007F110030C33184607F0E8FEB7F84E30D8
:101E58000133A7F84E30BB68002B04D0FB8BB7F8D2
:101E68004E209A42E4D30023A7F84C3012E0B7F88A
:101E78004C10B7F84C309B007A6813441A6807F185
:101E880010030433184607F0C9FEB7F84C30013385
:101E9800A7F84C307B68002B04D0FB8AB7F84C209D
:101EA8009A42E4D3FB681B6807F1100211461846F2
:101EB80000F046F8034683F00103DBB2002B06D09E
:101EC800FB681B681846FFF767FF0346BB64BB6CDB
:101ED80018465037BD4680BD80B582B000AF7860E7
:101EE80039607B68002B04D1064B7B607B68064A0F
:101EF8001A603968786807F075FF0346184608378E
:101F0800BD4680BDB80900200001C0A180B582B0DF
:101F180000AF786039607B68002B04D1064B7B608A
:101F28007B68064A1A603968786807F0D1FF03466B
:101F380018460837BD4680BDB80900200001C0A179
:101F480080B584B000AF786039603968786808F087
:101F580073F8F8600123FB72FB68002B01D10023A2
:101F680026E03968F868FFF755FE03461A46FB7AFB
:101F78001340002B14BF01230023FB723968F86853
:101F8800FFF7A4FD03461A46FB7A1340002B14BF43
:101F980001230023FB72786808F0E6F803461A4626
:101FA800FB7A1340002B14BF01230023FB72FB7A3A
:101FB80018461037BD4680BD80B584B000AFF860C4
:101FC800B9607A607A68B968F86808F0F9F8034681
:101FD80018461037BD4680BD80B586B000AF786022
:101FE8007B68002B01D1002316E00D4A07F110038E
:101FF80092E8030083E803000A4A07F1080392E81D
:10200800030083E8030007F1100207F108031946EB
:10201800786807F0B3FE034618461837BD4680BDFA
:10202800B8EC0008C0EC000880B483B000AF0A4BDD
:10203800D3F89430084A43F00403C2F89430064BAE
:10204800D3F8943003F004037B607B6800BF0C373F
:10205800BD465DF8047B7047000C024680B400AFB3
:1020680000BFFDE780B400AF00BFFDE780B400AF5C
:1020780000BFFDE780B400AF00BFFDE780B400AF4C
:1020880000BFFDE780B400AF00BFBD465DF8047B2C
:10209800704780B400AF00BFBD465DF8047B704751
:1020A80080B400AF00BFBD465DF8047B704780B5C3
:1020B80000AF01F0C1FB00BF80BD000080B500AFDC
:1020C8004FF4006001F0A2FF024B01221A6000BF2A
:1020D80080BD00BFE80C002080B500AF4FF4005071
:1020E80001F094FF054B1B68002B0CBF0123002354
:1020F800DBB21A46014B1A6000BF80BDEC0C002011
:1021080080B400AF01231846BD465DF8047B7047D4
:1021180080B582B000AF786039600AF03DFE0346B2
:1021280016221A604FF0FF3318460837BD4680BDA7
:1021380080B582B000AF78604FF0FF317868FFF764
:10214800E7FF00BFFDE780B586B000AFF860B96073
:102158007A6000237B610AE0AFF300800146BB6828
:102168005A1CBA60CAB21A707B6901337B617A69FA
:102178007B689A42F0DB7B6818461837BD4680BDFD
:1021880080B483B000AF78604FF0FF3318460C3747
:10219800BD465DF8047B704780B483B000AF7860BB
:1021A80039603B684FF400525A60002318460C37D8
:1021B800BD465DF8047B704780B483B000AF78609B
:1021C800012318460C37BD465DF8047B704780B480
:1021D80085B000AFF860B9607A60002318461437FC
:1021E800BD465DF8047B704780B586B000AF786067
:1021F800144A154BD31A7B617B693B61134B1B68EF
:10220800002B02D1114B124A1A60104B1A687B68D6
:1022180013443A699A4207D20AF0BEFD03460C22DB
:102228001A604FF0FF3309E0084B1B68FB60074B4F
:102238001A687B681344054A1360FB681846183708
:10224800BD4680BD00000C2000400000F01D0020AD
:10225800D81F002080B500AF224B234A1A60214BBB
:102268004FF4E1325A601F4B00229A601D4B002246
:10227800DA601C4B00221A611A4B0C225A61194B66
:1022880000229A61174B0022DA61164B00221A626B
:10229800144B00225A62134B00229A62114806F02E
:1022A800C5FE0346002B01D0FFF70AFC00210D48AC
:1022B80007F0AEFB0346002B01D0FFF701FC00211D
:1022C800084807F0E3FB0346002B01D0FFF7F8FBB3
:1022D800044807F064FB0346002B01D0FFF7F0FB2E
:1022E80000BF80BDF41D00200038014080B5BCB09F
:1022F80000AF786007F1DC0300221A605A609A6028
:10230800DA601A6107F11003C822002118460AF0A2
:10231800E1FC7B681B68264A934245D14FF00102D5
:102328004FF00003C7E9042300233B6607F11003BD
:10233800184604F09BF90346002B01D0FFF7C0FBB9
:102348001C4BD3F8A4301B4A43F48043C2F8A43092
:10235800184BD3F8A43003F48043FB60FB68154B9B
:10236800D3F88C30134A43F00103C2F88C30114B78
:10237800D3F88C3003F00103BB60BB684FF4C06333
:10238800C7F8DC300223C7F8E0300023C7F8E43090
:102398000023C7F8E8300723C7F8EC3007F1DC035F
:1023A8001946054801F020FC00BFF037BD4680BD46
:1023B80000380140000C02460000024290B587B088
:1023C80000AFF8607A601A460B46FB7213463B81F1
:1023D800FB68002B02D14FF0FF3309E0FB685C6813
:1023E800FB68D8683B89F97A7A68A04778617B6985
:1023F80018461C37BD4690BD90B587B000AFF86051
:102408007A601A460B46FB7213463B81FB68002B29
:1024180002D14FF0FF3309E0FB681C68FB68D868FD
:102428003B89F97A7A68A04778617B6918461C3736
:10243800BD4690BD80B483B000AF0346FB80B7F9BA
:10244800063007EE903AF8EEE77A9FED057A67EEE8
:10245800877AB0EE670A0C37BD465DF8047B704793
:1024680023DBF93D80B483B000AF0346FB80B7F9A6
:10247800063007EE903AF8EEE77A9FED057A67EEB8
:10248800877AB0EE670A0C37BD465DF8047B704763
:1024980000000C4280B483B000AF0346FB80B7F95C
:1024A800063007EE903AB8EEE77ADFED076AC7EE36
:1024B800267AB3EE097A77EE877AB0EE670A0C3798
:1024C800BD465DF8047B70470000804380B584B04A
:1024D80000AF78600B46FB7007F10802012310215A
:1024E8007868FFF76BFFF860FB68002B0FD1FB786B
:1024F80003F00303DAB23B7A62F383033B7207F11A
:102508000802012310217868FFF776FFF860FB685E
:1025180018461037BD4680BD80B586B000AF7860DC
:102528000B46FB70FB78FB7507F10C0319467868BE
:1025380000F0B2FF38613B69002B40F0C4803B7B60
:10254800C3F30003DAB23B7BC3F34003DBB21343AC
:10255800DAB23B7BC3F38003DBB21343DAB23B7BD3
:10256800C3F3C003DBB21343DAB23B7BC3F30013FC
:10257800DBB21343DAB23B7BC3F34013DBB2134342
:10258800DAB23B7BC3F38013DBB21343DAB23B7B93
:10259800C3F3C013DBB21343DAB27B7BC3F300038C
:1025A800DBB21343DAB27B7BC3F34003DBB21343E2
:1025B800DAB27B7BC3F38003DBB21343DAB27B7BF3
:1025C800C3F3C003DBB21343DAB27B7BC3F300135C
:1025D800DBB21343DAB27B7BC3F34013DBB21343A2
:1025E800DAB27B7BC3F38013DBB21343DAB27B7BB3
:1025F800C3F3C013DBB21343DBB2012B63D107F182
:102608000B031946786800F073FF38613B69002BAB
:1026180059D1FB7A032B53D801A252F823F000BFFB
:10262800392600084B26000869260008932600086A
:10263800FB78002B02D10123FB7544E0FB78FB7586
:1026480041E0FB78002B02D10223FB753BE0FB78CD
:10265800012B02D10223FB7535E0FB78FB7532E0D4
:10266800FB78002B02D10323FB752CE0FB78012BB0
:1026780002D10323FB7526E0FB78022B02D103234A
:10268800FB7520E0FB78FB751DE0FB78002B02D181
:102698000423FB7517E0FB78012B02D10423FB759B
:1026A80011E0FB78022B02D10423FB750BE0FB78C9
:1026B800032B02D10423FB7505E0FB78FB7502E0D0
:1026C800FB78FB7500BF0023BB723B69002B70D100
:1026D80007F10A031946786800F058FF3861BB7A99
:1026E800012B66D107F109031946786800F07AFFD3
:1026F80002463B6913443B613B69002B59D17B7A05
:10270800032B53D801A252F823F000BF2527000855
:1027180037270008552700087F270008FB78002B7B
:1027280002D10123FB7544E0FB78FB7541E0FB789F
:10273800002B02D10223FB753BE0FB78012B02D171
:102748000223FB7535E0FB78FB7532E0FB78002B44
:1027580002D10323FB752CE0FB78012B02D1032364
:10276800FB7526E0FB78022B02D10323FB7520E0E2
:10277800FB78FB751DE0FB78002B02D10423FB7569
:1027880017E0FB78012B02D10423FB7511E0FB78DD
:10279800022B02D10423FB750BE0FB78032B02D13B
:1027A8000423FB7505E0FB78FB7502E0FB78FB75FD
:1027B80000BF3B69002B07D107F108020123102154
:1027C8007868FFF7FBFD38613B69002B0FD1FB7D73
:1027D80003F00F03DAB23B7A62F307133B7207F197
:1027E8000802012310217868FFF706FE38613B696B
:1027F80018461837BD4680BD80B584B000AF7860F4
:102808000B46FB7007F10802012311217868FFF7D6
:10281800D5FDF860FB68002B0FD1FB7803F00F03A0
:10282800DAB23B7A62F303033B7207F10802012331
:1028380011217868FFF7E0FDF860FB68184610374B
:10284800BD4680BD80B586B000AF78600B46FB7092
:10285800FB78FB7507F10C031946786800F01CFE3D
:1028680038613B69002B40F0C4803B7BC3F3000315
:10287800DAB23B7BC3F34003DBB21343DAB23B7BF0
:10288800C3F38003DBB21343DAB23B7BC3F3C00369
:10289800DBB21343DAB23B7BC3F30013DBB213435F
:1028A800DAB23B7BC3F34013DBB21343DAB23B7BB0
:1028B800C3F38013DBB21343DAB23B7BC3F3C01319
:1028C800DBB21343DAB27B7BC3F30003DBB21343FF
:1028D800DAB27B7BC3F34003DBB21343DAB27B7B10
:1028E800C3F38003DBB21343DAB27B7BC3F3C003C9
:1028F800DBB21343DAB27B7BC3F30013DBB21343BF
:10290800DAB27B7BC3F34013DBB21343DAB27B7BCF
:10291800C3F38013DBB21343DAB27B7BC3F3C01378
:10292800DBB21343DBB2012B63D107F10B0319466A
:10293800786800F0DDFD38613B69002B59D1FB7ADE
:10294800032B53D801A252F823F000BF65290008D1
:102958007729000895290008BF290008FB78002B73
:1029680002D10123FB7544E0FB78FB7541E0FB785D
:10297800002B02D10223FB753BE0FB78012B02D12F
:102988000223FB7535E0FB78FB7532E0FB78002B02
:1029980002D10323FB752CE0FB78012B02D1032322
:1029A800FB7526E0FB78022B02D10323FB7520E0A0
:1029B800FB78FB751DE0FB78002B02D10423FB7527
:1029C80017E0FB78012B02D10423FB7511E0FB789B
:1029D800022B02D10423FB750BE0FB78032B02D1F9
:1029E8000423FB7505E0FB78FB7502E0FB78FB75BB
:1029F80000BF0023BB723B69002B70D107F10A03AB
:102A08001946786800F0C2FD3861BB7A012B66D19F
:102A180007F109031946786800F0E4FD02463B69AE
:102A280013443B613B69002B59D17B7A032B53D864
:102A380001A252F823F000BF512A0008632A0008B7
:102A4800812A0008AB2A0008FB78002B02D1012359
:102A5800FB7544E0FB78FB7541E0FB78002B02D165
:102A68000223FB753BE0FB78012B02D10223FB75A7
:102A780035E0FB78FB7532E0FB78002B02D10323AD
:102A8800FB752CE0FB78012B02D10323FB7526E0B4
:102A9800FB78022B02D10323FB7520E0FB78FB7542
:102AA8001DE0FB78002B02D10423FB7517E0FB78AF
:102AB800012B02D10423FB7511E0FB78022B02D114
:102AC8000423FB750BE0FB78032B02D10423FB7571
:102AD80005E0FB78FB7502E0FB78FB7500BF3B69FE
:102AE800002B07D107F10802012311217868FFF7AD
:102AF80065FC38613B69002B0FD1FB7D03F00F03A8
:102B0800DAB23B7A62F307133B7207F1080201233A
:102B180011217868FFF770FC38613B69184618374F
:102B2800BD4680BD80B584B000AF78600B46FB70B1
:102B380007F10802012312217868FFF73FFCF860CB
:102B4800FB68002B0FD1FB7803F00103DAB23B7A64
:102B580062F386133B7207F1080201231221786899
:102B6800FFF74AFCF860FB6818461037BD4680BD81
:102B780080B584B000AF7860396007F1080201239E
:102B88001E217868FFF71AFCF860FB68002B01D05B
:102B9800FB6807E03B7AC3F30003DBB21A463B68E5
:102BA8001A70FB6818461037BD4680BD80B584B0E2
:102BB80000AF7860396007F1080201231E217868A8
:102BC800FFF7FCFBF860FB68002B01D0FB6807E00F
:102BD8003B7AC3F34003DBB21A463B681A70FB68C2
:102BE80018461037BD4680BD80B584B000AF786008
:102BF800396007F1080201231E217868FFF7DEFB20
:102C0800F860FB68002B01D0FB6807E03B7AC3F350
:102C18008003DBB21A463B681A70FB681846103707
:102C2800BD4680BD80B584B000AF7860396007F1DB
:102C38000802022320217868FFF7C0FBF860FB68D0
:102C4800002B01D0FB6810E07B7A1AB23B681A802F
:102C58003B68B3F900309BB21B029BB23A7A13442B
:102C68009BB21AB23B681A80FB6818461037BD46FB
:102C780080BD80B586B000AF7860396007F10C027E
:102C8800062322217868FFF799FB78617B69002B7E
:102C980001D07B6936E07B7B1AB23B681A803B68BF
:102CA800B3F900309BB21B029BB23A7B13449BB230
:102CB8001AB23B681A80FA7B3B68023312B21A8058
:102CC8003B680233B3F900309BB21B029BB2BA7B5C
:102CD80013449AB23B68023312B21A807A7C3B687A
:102CE800043312B21A803B680433B3F900309BB244
:102CF8001B029BB23A7C13449AB23B68043312B26B
:102D08001A807B6918461837BD4680BD80B586B0E5
:102D180000AF7860396007F10C0206232821786833
:102D2800FFF74CFB78617B69002B01D07B6936E0AB
:102D38007B7B1AB23B681A803B68B3F900309BB2C0
:102D48001B029BB23A7B13449BB21AB23B681A80AF
:102D5800FA7B3B68023312B21A803B680233B3F93C
:102D680000309BB21B029BB2BA7B13449AB23B68F9
:102D7800023312B21A807A7C3B68043312B21A808A
:102D88003B680433B3F900309BB21B029BB23A7C18
:102D980013449AB23B68043312B21A807B6918460E
:102DA8001837BD4680BD80B584B000AF78600B464B
:102DB800FB7007F10802012318217868FFF7FEFA73
:102DC800F860FB68002B0FD1FB7803F00103DAB23F
:102DD8003B7A62F341033B7207F108020123182191
:102DE8007868FFF709FBF860FB6818461037BD469E
:102DF80080BD80B584B000AF78600B46FB7007F1EA
:102E08000802012301217868FFF7D8FAF860FB6807
:102E1800002B0FD1FB7803F00303DAB23B7A62F39D
:102E280087133B7207F10802012301217868FFF735
:102E3800E3FAF860FB6818461037BD4680BD80B5D8
:102E480084B000AF78600B46FB7007F108020123DD
:102E58000B217868FFF7B2FAF860FB68002B0FD1F6
:102E6800FB7803F00103DAB23B7A62F3C7133B72D3
:102E780007F1080201230B217868FFF7BDFAF86013
:102E8800FB6818461037BD4680BD80B584B000AFDA
:102E98007860396001233A680F217868FFF78EFA65
:102EA800F860FB6818461037BD4680BD80B584B011
:102EB80000AF78600B46FB7007F10802012312216E
:102EC8007868FFF77BFAF860FB68002B0FD1FB7876
:102ED80003F00103DAB23B7A62F300033B7207F1B5
:102EE8000802012312217868FFF786FAF860FB6868
:102EF80018461037BD4680BD80B584B000AF7860F5
:102F0800396007F10802012312217868FFF756FAA1
:102F1800F860FB68002B01D0FB6807E03B7AC3F33D
:102F28000003DBB21A463B681A70FB681846103774
:102F3800BD4680BD80B584B000AF78600B46FB709D
:102F480007F10802012310217868FFF737FAF860C3
:102F5800FB68002B0FD1FB7803F00103DAB23B7A50
:102F680062F341033B7207F10802012310217868DC
:102F7800FFF742FAF860FB6818461037BD4680BD77
:102F880080B584B000AF78600B46FB7007F108028B
:102F9800012317217868FFF711FAF860FB68002B06
:102FA80021D1FB781B0903F00103DAB23B7A62F303
:102FB80082033B72FB785B0903F00103DAB23B7AC8
:102FC80062F304133B72FB7803F00703DAB23B7A2F
:102FD80062F347133B7207F108020123172178684F
:102FE800FFF70AFAF860FB6818461037BD4680BD3F
:102FF80080B584B000AF7860396002217868FFF747
:10300800F8FEF860FB68002B07D13B685A1D0123C6
:103018000D217868FFF7F0F9F860FB68002B07D1FD
:103028003B689A1C01230A217868FFF7E5F9F860E4
:10303800FB68002B07D13B68DA1C01230B21786859
:10304800FFF7DAF9F860FB68002B07D13B681A1D17
:1030580001230C217868FFF7CFF9F8600021786820
:10306800FFF7C7FE0246FB681344FB60FB68002BB2
:1030780040F0D6803B689B78C3F3C013DAB23B6854
:103088009B78C3F34013DBB21343DAB23B689B78F7
:10309800C3F3C003DBB21343DAB23B689B78C3F3D4
:1030A8000013DBB21343DAB23B68DB78C3F30003E7
:1030B800DBB21343DAB23B68DB78C3F34003DBB21D
:1030C8001343DAB23B68DB78C3F38003DBB2134304
:1030D800DAB23B68DB78C3F3C003DBB21343DAB27E
:1030E8003B68DB78C3F30013DBB21343DAB23B6807
:1030F800DB78C3F34013DBB21343DAB23B68DB7807
:10310800C3F38013DBB21343DAB23B68DB78C3F353
:10311800C013DBB21343DAB23B681B79C3F3000375
:10312800DBB21343DAB23B681B79C3F34003DBB26B
:103138001343DAB23B681B79C3F38003DBB2134352
:10314800DAB23B681B79C3F3C003DBB21343DAB2CC
:103158003B681B79C3F30013DBB21343DAB23B6855
:103168001B79C3F34013DBB21343DAB23B681B7914
:10317800C3F38013DBB21343DAB23B681B79C3F3A2
:10318800C013DBB21343DAB23B685B79C3F30003C5
:10319800DBB21343DAB23B685B79C3F34003DBB2BB
:1031A8001343DAB23B685B79C3F38003DBB21343A2
:1031B800DAB23B685B79C3F3C003DBB21343DAB21C
:1031C8003B685B79C3F30013DBB21343DAB23B68A5
:1031D8005B79C3F34013DBB21343DAB23B685B7924
:1031E800C3F38013DBB21343DAB23B685B79C3F3F2
:1031F800C013DBB21343DBB2002B05D03A68537817
:1032080043F00203537004E03A68537823F0020352
:1032180053703A6801230D217868FFF7EDF8F860DC
:10322800FB68002B07D13B685A1C01235E21786894
:10323800FFF7E2F8F860FB68002B79D107F1080284
:10324800012358217868FFF7B9F8F8603B681B78C4
:10325800C3F3C013DAB23B681B78C3F38003DBB255
:103268001343DAB23B681B78C3F38013DBB2134312
:10327800DAB23B681B78C3F34003DBB21343DAB21C
:103288003B681B78C3F30003DBB21343DAB23B6835
:103298001B78C3F34013DBB21343DAB23B681B78E5
:1032A800C3F30013DBB21343DAB23B681B78C3F3F2
:1032B800C003DBB21343DAB23B685B78C3F30003A5
:1032C800DBB21343DAB23B685B78C3F38003DBB24B
:1032D8001343DAB23B685B78C3F3C003DBB2134332
:1032E800DAB23B685B78C3F30013DBB21343DAB29C
:1032F8003B685B78C3F34013DBB21343DAB23B6835
:103308005B78C3F38013DBB21343DAB23B685B78B4
:10331800C3F3C013DBB21343DBB2002B04D03B7AF8
:1033280043F080033B7203E03B7A23F080033B7257
:10333800FB68002B07D107F10802012358217868A0
:10334800FFF75AF8F860FB6818461037BD4680BD8D
:1033580080B584B000AF7860396002217868FFF7E3
:1033680048FDF860FB68002B07D13B685A1D012314
:103378000D217868FFF722F8F860FB68002B07D169
:103388003B689A1C01230A217868FFF717F8F86050
:10339800FB68002B07D13B68DA1C01230B217868F6
:1033A800FFF70CF8F860FB68002B07D13B681A1D83
:1033B80001230C217868FFF701F8F860002178688C
:1033C800FFF717FD0246FB681344FB60FB68002B00
:1033D80006D13A6801230D217868FEF7EFFFF860FF
:1033E800FB68002B07D13B685A1C01235E217868D3
:1033F800FEF7E4FFF860FB6818461037BD4680BD4D
:1034080080B584B000AF78600B46FB7007F1080206
:10341800012312217868FEF7D1FFF860FB68002BC2
:103428000FD1FB7803F00103DAB23B7A62F304139D
:103438003B7207F10802012312217868FEF7DCFFCE
:10344800F860FB6818461037BD4680BD80B584B06B
:1034580000AF78600B46FB7007F1080201231221C8
:103468007868FEF7ABFFF860FB68002B0FD1FB789C
:1034780003F00103DAB23B7A62F345133B7207F1BA
:103488000802012312217868FEF7B6FFF860FB688E
:1034980018461037BD4680BD80B584B000AF78604F
:1034A800396002217868FFF7A4FCF860FB68002BFC
:1034B80006D13A68012346217868FEF77FFFF86055
:1034C800FB68002B07D13B685A1C01234721786809
:1034D800FEF774FFF86000217868FFF78AFC02465F
:1034E800FB681344FB60FB6818461037BD4680BD77
:1034F80080B584B000AF7860396002217868FFF742
:1035080078FCF860FB68002B07D107F1080201235B
:103518005F217868FEF752FFF86000217868FFF7AE
:1035280068FC0246FB681344FB60FB68002B01D073
:10353800FB6826E03B7AC3F3C103DBB2032B1BD83D
:1035480001A252F823F000BF613500086935000870
:1035580071350008793500083B6800221A700FE0C1
:103568003B6801221A700BE03B6802221A7007E0E0
:103578003B6803221A7003E03B6800221A7000BF00
:10358800FB6818461037BD4680BD00BF80B584B0C3
:1035980000AF7860396002217868FFF72AFCF8608C
:1035A800FB68002B07D107F1080201230521786881
:1035B800FEF704FFF860FB68002B06D13B7AC3F3E3
:1035C8000013DBB21A463B681A7000217868FFF7CF
:1035D80010FC0246FB681344FB60FB681846103772
:1035E800BD4680BD80B584B000AF786039600221E7
:1035F8007868FFF7FEFBF860FB68002B07D107F13E
:103608000802012360217868FEF7D8FEF860FB689D
:10361800002B25D13B7AC3F30113DBB2032B1BD854
:1036280001A252F823F000BF4136000849360008CD
:1036380051360008593600083B6800221A700FE01E
:103648003B6801221A700BE03B6802221A7007E0FF
:103658003B6803221A7003E03B6800221A7000BF1F
:1036680000217868FFF7C5FB0246FB681344FB603E
:10367800FB6818461037BD4680BD00BF80B400AF58
:10368800184BD3F88830174A43F47003C2F88830CF
:10369800154B01221A60144B0022DA61124B0022EA
:1036A8001A62114B00225A620F4B1B680E4A23F014
:1036B800A85323F4102313600B4B00229A620A4B81
:1036C8001B68094A23F480231360074B00221A65FC
:1036D800044B4FF000629A6000BFBD465DF8047B62
:1036E800704700BF00ED00E0000C024680B500AF57
:1036F800124B1B68114A43F480731360032000F0D7
:103708008CF902F0D5FD02460D4B1B6A03F00F033E
:103718000C49CB5C22FA03F30B4A1360042000F037
:10372800D1F90F2000F012F80346002B01D0012335
:1037380002E0FEF779FC0023184680BD0020024015
:10374800000C0246F07202085C0A002080B584B0C2
:1037580000AF78600023FB60334B1B78002B01D14E
:1037680001235CE0314B1B6803F00403042B0CD1EC
:103778002F4B1A682C4B1B7819464FF47A73B3FBFE
:10378800F1F3B2FBF3F3FB6037E000F0F3F9B86054
:10379800BB68022B23D0BB68022B2DD8BB68002B3B
:1037A80003D0BB68012B0DD026E0214B1A681E4BB5
:1037B8001B7819464FF4FA53B3FBF1F3B2FBF3F35A
:1037C800FB601AE0184B1B781A464FF47A73B3FB68
:1037D800F2F34FF4FA42B2FBF3F3FB600DE0124B45
:1037E8001B781A464FF47A73B3FBF2F34FF4004296
:1037F800B2FBF3F3FB6000E000BFF86800F040F9AB
:103808000346002B01D0012309E0002279684FF01C
:10381800FF3000F00DF9074A7B6813600023184653
:103828001037BD4680BD00BF640A002010E000E0EC
:103838005C0A0020600A002080B400AF064B1B78A9
:103848001A46064B1B681344044A136000BFBD4662
:103858005DF8047B704700BF640A0020881E0020C2
:1038680080B400AF034B1B681846BD465DF8047B67
:10387800704700BF881E002080B584B000AF786014
:10388800FFF7EEFFB8607B68FB60FB68B3F1FF3FB2
:1038980005D00A4B1B781A46FB681344FB6000BF2F
:1038A800FFF7DEFF0246BB68D31AFA689A42F7D8D8
:1038B80000BF00BF1037BD4680BD00BF640A0020AE
:1038C80080B485B000AF78607B6803F00703FB60C5
:1038D8000C4BDB68BB60BA684FF6FF031340BB6054
:1038E800FB681A02BB68134343F0BF6343F4003319
:1038F800BB60044ABB68D36000BF1437BD465DF89F
:10390800047B704700ED00E080B400AF044BDB6837
:103918001B0A03F007031846BD465DF8047B704791
:1039280000ED00E080B483B000AF0346FB7197F967
:103938000730002B0BDBFB7903F01F02074997F9CF
:1039480007305B09012000FA02F241F8232000BF8A
:103958000C37BD465DF8047B704700BF00E100E00E
:1039680080B483B000AF03463960FB7197F9073024
:10397800002B0ADB3B68DAB20C4997F907301201D1
:10398800D2B20B4483F800230AE03B68DAB2084954
:10399800FB7903F00F03043B1201D2B20B441A76F1
:1039A80000BF0C37BD465DF8047B704700E100E0BE
:1039B80000ED00E080B489B000AFF860B9607A60CB
:1039C800FB6803F00703FB61FB69C3F10703042BE2
:1039D80028BF0423BB61FB690433062B02D9FB69AA
:1039E800033B00E000237B614FF0FF32BB6902FA22
:1039F80003F3DA43BB681A407B699A404FF0FF3102
:103A08007B6901FA03F3D9437B680B4013431846DB
:103A18002437BD465DF8047B704780B582B000AF9F
:103A280078607868FFF74CFF00BF0837BD4680BD57
:103A380080B586B000AF0346B9607A60FB73FFF7C4
:103A480063FF78617A68B9687869FFF7B3FF02465F
:103A580097F90F3011461846FFF782FF00BF183755
:103A6800BD4680BD80B582B000AF0346FB7197F9B3
:103A780007301846FFF756FF00BF0837BD4680BD20
:103A880080B483B000AF78607B68013BB3F1807F7E
:103A980001D301230DE00A4A7B68013B5360084BC0
:103AA80000229A60064B1B68054A43F00303136023
:103AB800002318460C37BD465DF8047B704700BFED
:103AC80010E000E080B483B000AF78607B68042B1E
:103AD80044D801A252F823F0033B0008213B000818
:103AE800433B0008653B0008F53A00081F4B1B687C
:103AF8001E4A43F00403136031E01C4B1B681B4A49
:103B080023F0040313601A4BD3F8E030184A23F467
:103B18004003C2F8E03022E0144B1B68134A23F03C
:103B280004031360124BD3F8E03023F44003104A27
:103B380043F48003C2F8E03011E00C4B1B680B4AD9
:103B480023F0040313600A4BD3F8E03023F4400356
:103B5800074A43F40003C2F8E03000E000BF00BFAA
:103B68000C37BD465DF8047B704700BF10E000E0ED
:103B7800000C024680B483B000AF194B1B6803F0F9
:103B88000403002B02D004237B6021E0154BD3F8FB
:103B9800E03003F440033B603B68B3F5000F11D0FD
:103BA8003B68B3F5000F10D83B68002B04D03B6886
:103BB800B3F5800F03D008E000237B6008E0012301
:103BC8007B6005E002237B6002E000237B6000BF8E
:103BD8007B6818460C37BD465DF8047B704700BF0C
:103BE80010E000E0000C024680B489B000AF7860B5
:103BF800396000237B617B683B61C2E13B681A68DE
:103C080001217B6901FA03F31340FB607B69BB6107
:103C1800FB68002B00F0B2817B68554A93425DD166
:103C28007B681B68FB6101227B6902FA03F3DB43B3
:103C3800FA691340FB613B685B6803F001027B692A
:103C480002FA03F3FA691343FB617B68FA691A60A5
:103C5800484A7B6952F833303B61464A7B69DB004E
:103C680013445B68BB61BB69DA083B69083253F8E7
:103C78002230FB61BB6903F007039B000F2202FAA5
:103C880003F3DB43FA691340FB61BB6903F00703E5
:103C98009B000B2202FA03F3FA691343FB61BB6929
:103CA800DA083B690832F96943F822103B691B6856
:103CB800FB61BB695B00032202FA03F3DB43FA6989
:103CC8001340FB61BB695B00022202FA03F3FA6945
:103CD8001343FB613B69FA691A6067E03B685B68FC
:103CE800022B03D03B685B68122B45D17B69DA084D
:103CF8007B68083253F82230FB617B6903F00703C5
:103D08009B000F2202FA03F3DB43FA691340FB61BD
:103D18003B681B6903F00F027B6903F007039B00F4
:103D280002FA03F3FA691343FB617B69DA087B68DB
:103D38000832F96943F822103B691B68FB61BB69CB
:103D48005B00032202FA03F3DB43FA691340FB61C9
:103D58003B685B6803F00302BB695B0002FA03F38C
:103D6800FA691343FB613B69FA691A601EE000BFF8
:103D780000000246487302083B691B68FB61BB6987
:103D88005B00032202FA03F3DB43FA691340FB6189
:103D98003B685B6803F00302BB695B0002FA03F34C
:103DA800FA691343FB613B69FA691A603B685B680F
:103DB800012B0BD03B685B68022B07D03B685B6824
:103DC800112B03D03B685B68122B30D13B699B6891
:103DD800FB61BB695B00032202FA03F3DB43FA6968
:103DE8001340FB613B68DA68BB695B0002FA03F3C6
:103DF800FA691343FB613B69FA699A603B695B683E
:103E0800FB610122BB6902FA03F3DB43FA69134041
:103E1800FB613B685B681B0903F00102BB6902FA9E
:103E280003F3FA691343FB613B69FA695A603B681B
:103E38005B68032B07D13B685B68032B1BD13B688E
:103E48009B68012B17D03B69DB68FB61BB695B0092
:103E5800032202FA03F3DB43FA691340FB613B6870
:103E68009A68BB695B0002FA03F3FA691343FB61C2
:103E78003B69FA69DA603B685B6803F08053002BA2
:103E88007CD0474A7B699B08183352F82330FB6182
:103E98007B6903F00303DB000F2202FA03F3DB4321
:103EA800FA691340FB617B689A0A3E4B13407A69B2
:103EB80002F00302D2009340FA691343FB613849C8
:103EC8007B699B081833FA6941F82320344B1B6837
:103ED800FB61FB68DB43FA691340FB613B685B6885
:103EE80003F48013002B03D0FA69FB681343FB61CA
:103EF8002B4AFB6913602A4B5B68FB61FB68DB4359
:103F0800FA691340FB613B685B6803F40013002BFC
:103F180003D0FA69FB681343FB61214AFB695360CC
:103F28001F4BD3F88430FB61FB68DB43FA6913400D
:103F3800FB613B685B6803F40033002B03D0FA692C
:103F4800FB681343FB61164AFB69C2F88430144BC3
:103F5800D3F88030FB61FB68DB43FA691340FB61EF
:103F68003B685B6803F48033002B03D0FA69FB6875
:103F78001343FB610A4AFB69C2F880307B6901334D
:103F88007B613B681A687B6922FA03F3002B7FF494
:103F980035AE00BF00BF2437BD465DF8047B7047CF
:103FA800002002467F7F2F0080B483B000AF786086
:103FB8000B467B8013467B707B78002B03D07A8876
:103FC8007B689A6102E07A887B689A6200BF0C3746
:103FD800BD465DF8047B704780B485B000AF78605B
:103FE8000B467B807B685B69FB607A88FB681340C3
:103FF8001A04FB68D9437B880B401A437B689A6193
:1040080000BF1437BD465DF8047B704780B582B0A9
:1040180000AF0346FB800F4BDA68FB881340002B88
:1040280006D00C4AFB88D360FB88184600F014F8C9
:10403800084B1A69FB881340002B06D0054AFB88F9
:104048001361FB88184600F012F800BF0837BD4618
:1040580080BD00BF0020024680B483B000AF034695
:10406800FB8000BF0C37BD465DF8047B704780B409
:1040780083B000AF0346FB8000BF0C37BD465DF838
:10408800047B704780B582B000AF78607B68002BF6
:1040980001D101238DE07B6893F84130DBB2002B1E
:1040A80006D17B68002283F84020786800F085F804
:1040B8007B68242283F841207B681B681A687B6828
:1040C8001B6822F001021A607B685A687B681B68CB
:1040D80022F070621A617B681B689A687B681B68AB
:1040E80022F400429A607B68DB68012B07D17B6869
:1040F8009A687B681B6842F400429A6006E07B6815
:104108009A687B681B6842F404429A607B68DB68A3
:10411800022B08D17B681B685A687B681B6842F4CD
:1041280000625A6007E07B681B685A687B681B68F6
:1041380022F400625A607B681B685B687A681268C0
:1041480043F0007343F4004353607B681B68DA68EC
:104158007B681B6822F40042DA607B681A697B6816
:104168005B6942EA03017B689B691A027B681B68EA
:104178000A43DA607B68D9697B681A6A7B681B68BE
:104188000A431A607B681B681A687B681B6842F0E0
:1041980001021A607B6800225A647B68202283F837
:1041A80041207B6800221A637B68002283F8422042
:1041B800002318460837BD4680BD80B483B000AFE1
:1041C800786000BF0C37BD465DF8047B704700007F
:1041D80080B588B002AFF860084611461A46034613
:1041E8007B810B463B811346FB80FB6893F841308B
:1041F800DBB2202B40F0F9803B6A002B02D0BB8C4D
:10420800002B05D1FB684FF400725A640123EDE0DE
:10421800FB6893F84030012B01D10223E6E0FB68EC
:10422800012283F84020FFF71BFB78617B6900932C
:10423800192301224FF40041F86800F0D1FB03462E
:10424800002B01D00123D1E0FB68212283F8412013
:10425800FB68402283F84220FB6800225A64FB680E
:104268003A6A5A62FB68BA8C5A85FB6800225A631C
:10427800F8883A8979897B690193BB6A0093034678
:10428800F86800F0E1FA0346002B05D0FB6800222D
:1042980083F840200123A9E0FB685B8D9BB2FF2BCC
:1042A8000ED9FB68FF221A85FB681B8DDAB2798963
:1042B800002300934FF08073F86800F055FD0FE07D
:1042C800FB685B8D9AB2FB681A85FB681B8DDAB2B6
:1042D8007989002300934FF00073F86800F044FDDB
:1042E8007A69B96AF86800F0D4FB0346002B01D05C
:1042F80001237BE0FB685B6A1A78FB681B689A629B
:10430800FB685B6A5A1CFB685A62FB685B8D9BB250
:10431800013B9AB2FB685A85FB681B8D013B9AB238
:10432800FB681A85FB685B8D9BB2002B34D0FB6859
:104338001B8D002B30D17B690093BB6A0022802142
:10434800F86800F04DFB0346002B01D001234DE037
:10435800FB685B8D9BB2FF2B0ED9FB68FF221A8589
:10436800FB681B8DDAB27989002300934FF08073C4
:10437800F86800F0F9FC0FE0FB685B8D9AB2FB6807
:104388001A85FB681B8DDAB27989002300934FF0F8
:104398000073F86800F0E8FCFB685B8D9BB2002BAB
:1043A8009ED17A69B96AF86800F0BAFB0346002B17
:1043B80001D001231AE0FB681B682022DA61FB6840
:1043C8001B685968FB681A680A4B0B405360FB6806
:1043D800202283F84120FB68002283F84220FB68F2
:1043E800002283F84020002300E0022318461837F3
:1043F800BD4680BD00E800FE80B588B002AFF86019
:10440800084611461A4603467B810B463B811346F4
:10441800FB80FB6893F84130DBB2202B40F0FD8035
:104428003B6A002B02D0BB8C002B05D1FB684FF4F4
:1044380000725A640123F1E0FB6893F84030012BC5
:1044480001D10223EAE0FB68012283F84020FFF74C
:1044580007FA78617B690093192301224FF4004120
:10446800F86800F0BDFA0346002B01D00123D5E01F
:10447800FB68222283F84120FB68402283F842200F
:10448800FB6800225A64FB683A6A5A62FB68BA8C75
:104498005A85FB6800225A63F8883A8979897B69CA
:1044A8000193BB6A00930346F86800F021FA0346BB
:1044B800002B05D0FB68002283F840200123ADE0E3
:1044C800FB685B8D9BB2FF2B0ED9FB68FF221A8518
:1044D800FB681B8DDAB27989524B00934FF08073D9
:1044E800F86800F041FC0FE0FB685B8D9AB2FB684E
:1044F8001A85FB681B8DDAB279894A4B00934FF015
:104508000073F86800F030FC7B690093BB6A0022F6
:104518000421F86800F064FA0346002B01D0012357
:104528007CE0FB681B685A6AFB685B6AD2B21A7047
:10453800FB685B6A5A1CFB685A62FB681B8D013B6F
:104548009AB2FB681A85FB685B8D9BB2013B9AB2F5
:10455800FB685A85FB685B8D9BB2002B34D0FB68E7
:104568001B8D002B30D17B690093BB6A0022802110
:10457800F86800F035FA0346002B01D001234DE01E
:10458800FB685B8D9BB2FF2B0ED9FB68FF221A8557
:10459800FB681B8DDAB27989002300934FF0807392
:1045A800F86800F0E1FB0FE0FB685B8D9AB2FB68EE
:1045B8001A85FB681B8DDAB27989002300934FF0C6
:1045C8000073F86800F0D0FBFB685B8D9BB2002B92
:1045D8009AD17A69B96AF86800F0A2FA0346002B02
:1045E80001D001231AE0FB681B682022DA61FB680E
:1045F8001B685968FB681A680B4B0B405360FB68D3
:10460800202283F84120FB68002283F84220FB68BF
:10461800002283F84020002300E0022318461837C0
:10462800BD4680BD0024008000E800FE80B58AB049
:1046380002AFF8607A603B600B467B8100237B61A8
:10464800FB6893F84130DBB2202B40F0DE80FB683A
:104658001B689B6903F40043B3F5004F01D10223A3
:10466800D4E0FB6893F84030012B01D10223CDE060
:10467800FB68012283F84020FB68242283F841204C
:10468800FB6800225A64FB68DB68012B07D17B8931
:10469800C3F3090343F0007343F4005306E07B8936
:1046A800C3F3090343F0007343F42053FA68126814
:1046B8005360FFF7D5F8B861FB681B689B6903F086
:1046C8002003202B0CBF01230023DBB2FB77FB6800
:1046D8001B689B6903F01003102B0CBF01230023F8
:1046E800DBB2BB7734E03B68B3F1FF3F1AD0FFF78A
:1046F800B7F80246BB69D31A3A689A4202D33B68B4
:10470800002B0FD1FB68202283F84120FB685B6CEB
:1047180043F02002FB685A64FB68002283F84020BB
:10472800012373E0FB681B689B6903F02003202BBF
:104738000CBF01230023DBB2FB77FB681B689B6976
:1047480003F01003102B0CBF01230023DBB2BB774F
:10475800FB7F002B02D1BB7F002BC4D0FB681B68FA
:104768009B6903F01003102B24D0BB6900933B68AE
:1047780000222021F86800F033F90346002B0BD003
:10478800FB685B6C042B28D1FB681B682022DA616C
:10479800FB6800225A6420E0FB681B682022DA616B
:1047A800FB68202283F84120FB68002283F8402020
:1047B80000232BE0FB681B681022DA61BB690093B9
:1047C8003B6800222021F86800F00AF90346002B14
:1047D80003D1FB681B682022DA617B6901337B61A6
:1047E8007B697A689A423FF64EAFFB68202283F8CD
:1047F8004120FB685B6C43F02002FB685A64FB684D
:10480800002283F84020012300E0022318462037C5
:10481800BD4680BD80B483B000AF78607B6893F8F4
:104828004130DBB218460C37BD465DF8047B704753
:1048380080B483B000AF78607B685B6C18460C3737
:10484800BD465DF8047B704780B586B002AFF8605E
:10485800084611461A4603467B810B463B811346A0
:10486800FB80FB88DAB27989204B00934FF0807384
:10487800F86800F079FAFA69B969F86800F009F996
:104888000346002B01D001232CE0FB88012B05D126
:104898003B89DAB2FB681B689A6215E03B891B0A00
:1048A8009BB2DAB2FB681B689A62FA69B969F86860
:1048B80000F0EFF80346002B01D0012312E03B89FA
:1048C800DAB2FB681B689A62FB690093BB69002235
:1048D8008021F86800F084F80346002B01D00123FA
:1048E80000E0002318461037BD4680BD0020008038
:1048F80080B586B002AFF860084611461A460346EE
:104908007B810B463B811346FB80FB88DAB27989B1
:10491800204B00930023F86800F026FAFA69B96979
:10492800F86800F0B6F80346002B01D001232CE00C
:10493800FB88012B05D13B89DAB2FB681B689A62B8
:1049480015E03B891B0A9BB2DAB2FB681B689A62C6
:10495800FA69B969F86800F09CF80346002B01D0A1
:10496800012312E03B89DAB2FB681B689A62FB6993
:104978000093BB6900224021F86800F031F8034633
:10498800002B01D0012300E0002318461037BD4654
:1049980080BD00BF0020008080B483B000AF786085
:1049A8007B681B689B6903F00203022B03D17B68B9
:1049B8001B6800229A627B681B689B6903F00103ED
:1049C800012B07D07B681B689A697B681B6842F0DB
:1049D80001029A6100BF0C37BD465DF8047B704741
:1049E80080B584B000AFF860B9603B601346FB71D6
:1049F8003BE0BA693968F86800F0D6F80346002B3E
:104A080001D0012341E03B68B3F1FF3F2DD0FEF711
:104A180027FF0246BB69D31A3A689A4202D33B6819
:104A2800002B22D1FB681B689A69BB681340BA68DF
:104A38009A420CBF01230023DBB21A46FB799A4243
:104A480013D1FB685B6C43F02002FB685A64FB6877
:104A5800202283F84120FB68002283F84220FB686B
:104A6800002283F8402001230FE0FB681B689A6945
:104A7800BB681340BA689A420CBF01230023DBB21B
:104A88001A46FB799A42B4D0002318461037BD461F
:104A980080BD80B584B000AFF860B9607A6033E05B
:104AA8007A68B968F86800F07FF80346002B01D0EF
:104AB800012331E0BB68B3F1FF3F25D0FEF7D0FEFC
:104AC80002467B68D31ABA689A4202D3BB68002BA5
:104AD8001AD1FB681B689B6903F00203022B13D0F1
:104AE800FB685B6C43F02002FB685A64FB68202279
:104AF80083F84120FB68002283F84220FB680022EB
:104B080083F84020012307E0FB681B689B6903F0DA
:104B18000203022BC4D1002318461037BD4680BDBE
:104B280080B584B000AFF860B9607A602FE07A6829
:104B3800B968F86800F038F80346002B01D0012363
:104B48002DE0FEF78DFE02467B68D31ABA689A42BA
:104B580002D3BB68002B1AD1FB681B689B6903F062
:104B68002003202B13D0FB685B6C43F02002FB680A
:104B78005A64FB68202283F84120FB68002283F8EE
:104B88004220FB68002283F84020012307E0FB68ED
:104B98001B689B6903F02003202BC8D1002318460B
:104BA8001037BD4680BD000080B58AB000AFF86000
:104BB800B9607A60002387F82730FB681B689B6917
:104BC800BB6100233B627B68FB61BB6903F0100398
:104BD800002B68D0FB681B681022DA6149E0BB68CB
:104BE800B3F1FF3F45D0FEF73BFE0246FB69D31AFF
:104BF800BA689A4202D3BB68002B3AD1FB681B689B
:104C08005B6803F480437B61FB6893F84230FB7474
:104C1800FB681B689B6903F40043B3F5004F21D17F
:104C28007B69B3F5804F1DD0FB7C202B1AD0FB6825
:104C38001B685A68FB681B6842F480425A60FEF79A
:104C48000FFEF8610EE0FEF70BFE0246FB69D31A71
:104C5800192B07D93B6A43F020033B62012387F8ED
:104C6800273006E0FB681B689B6903F02003202BB4
:104C7800E9D1FB681B689B6903F02003202B03D054
:104C880097F82730002BAAD097F82730002B03D1AC
:104C9800FB681B682022DA613B6A43F004033B622D
:104CA800012387F82730FB681B689B69BB61BB69D8
:104CB80003F48073002B0BD03B6A43F001033B6283
:104CC800FB681B684FF48072DA61012387F827308C
:104CD800BB6903F48063002B0BD03B6A43F00803E5
:104CE8003B62FB681B684FF48062DA61012387F836
:104CF8002730BB6903F40073002B0BD03B6A43F0E9
:104D080002033B62FB681B684FF40072DA610123FF
:104D180087F8273097F82730002B1CD0F868FFF762
:104D28003BFEFB681B685968FB681A680D4B0B4013
:104D38005360FB685A6C3B6A1A43FB685A64FB6809
:104D4800202283F84120FB68002283F84220FB6878
:104D5800002283F8402097F8273018462837BD46A8
:104D680080BD00BF00E800FE80B487B000AFF860E7
:104D78007B600B467B8113467B727B89C3F30902F8
:104D88007B7A1B0403F47F031A437B681A433B6A4C
:104D9800134323F000437B61FB681B685A683B6A36
:104DA8005B0D03F48061084B0B43DB4302EA03010C
:104DB800FB681B687A690A435A6000BF1C37BD4606
:104DC8005DF8047B704700BFFF63FF0380B483B0C6
:104DD80000AF786039607B6893F84130DBB2202BF4
:104DE80038D17B6893F84030012B01D1022332E09F
:104DF8007B68012283F840207B68242283F84120C5
:104E08007B681B681A687B681B6822F001021A60BD
:104E18007B681B681A687B681B6822F480521A60DA
:104E28007B681B6819687B681B683A680A431A60C4
:104E38007B681B681A687B681B6842F001021A606D
:104E48007B68202283F841207B68002283F8402079
:104E5800002300E0022318460C37BD465DF8047BAA
:104E6800704780B485B000AF786039607B6893F88C
:104E78004130DBB2202B39D17B6893F84030012BCD
:104E880001D1022333E07B68012283F840207B684C
:104E9800242283F841207B681B681A687B681B689A
:104EA80022F001021A607B681B681B68FB60FB68C4
:104EB80023F47063FB603B681B02FA681343FB60D2
:104EC8007B681B68FA681A607B681B681A687B68CD
:104ED8001B6842F001021A607B68202283F8412097
:104EE8007B68002283F84020002300E00223184654
:104EF8001437BD465DF8047B7047000080B485B068
:104F080000AF78600023FB730B4B1B6803F00103B1
:104F1800002B02D00123FB7307E0074B1B6823F02B
:104F2800040205497B6813430B60FB7B1846143762
:104F3800BD465DF8047B70470004034080B400AFB1
:104F4800054B1B68044A43F001031360002318460D
:104F5800BD465DF8047B70470004034080B485B00B
:104F680000AF7860394BDB6B03F44033BB60BA6841
:104F78007B689A420BD17B68B3F5803F05D9334BE8
:104F8800DB68324A43F48023D360002357E07B6810
:104F9800B3F5803F0AD92D4BDB6823F4E0227B6808
:104FA80013432A4A43F48023D36007E0274BDB6886
:104FB80023F4E02225497B681343CB60244B1B680C
:104FC800244AA2FB03239B09322202FB03F3214A52
:104FD800A2FB03239B090133FB6002E0FB68013B52
:104FE800FB601A4BDB6803F40043002B02D1FB681B
:104FF800002BF3D1FB68002B1BD0154B1B68154AFF
:10500800A2FB03239B09322202FB03F3114AA2FBF2
:1050180003239B090133FB6002E0FB68013BFB6053
:105028000A4BDB6B03F40043002B02D1FB68002B17
:10503800F3D1FB68002B01D1032300E000231846BD
:105048001437BD465DF8047B704700BF0008024670
:105058005C0A0020D34D621080B400AF044BDB6BB8
:1050680003F440331846BD465DF8047B704700BF23
:105078000008024680B485B000AF7860224B1B68F8
:10508800224AA2FB03239B09322202FB03F31F4A95
:10509800A2FB03239B090133FB607B68002B13D120
:1050A8001B4B9B681A4A23F00203936002E0FB68DB
:1050B800013BFB60164BDB6B03F00203022B16D19E
:1050C800FB68002BF3D112E0114B9B68104A43F0A8
:1050D8000203936002E0FB68013BFB600C4BDB6B57
:1050E80003F00203002B02D1FB68002BF3D1FB680D
:1050F800002B01D1032300E0002318461437BD46D6
:105108005DF8047B704700BF5C0A0020D34D621035
:105118000008024680B58EB000AF7860002387F89B
:1051280037307B68002B02D1012300F0C8BE994BB1
:10513800DB6903F00C033B63964B9B6A03F00303A4
:10514800FB627B681B6803F01003002B00F06C8186
:105158003B6B002B07D03B6B0C2B40F0DE80FB6ACF
:10516800012B40F0DA807B68DB69002B02D1012338
:1051780000F0A5BE7B685A6A864B9B6803F400035F
:10518800002B04D0834B9B6803F0704305E0814BF0
:10519800D3F8F4301B0403F07043934255D23B6BB1
:1051A800002B0AD17B685B6A184601F0D9F90346DF
:1051B800002B02D0012300F082BE764B9B68754A13
:1051C80043F400039360734B9B6823F070427B6841
:1051D8005B6A704913438B607B685B6AB3F1404F2D
:1051E80009D36C4BDB6823F01F027B681B6A694993
:1051F8001343CB607EE07B685B6A002B0ADA654B61
:10520800DB6823F478727B681B6A5B01614913438E
:10521800CB606FE07B685B6AB3F1804F0AD35D4B6C
:10522800DB6823F4F8427B681B6A9B0259491343E5
:10523800CB605FE0574BDB6823F478227B681B6AFE
:10524800DB0354491343CB6054E0524B9B68514AEB
:1052580043F4000393604F4B9B6823F070427B68D4
:105268005B6A4C4913438B607B685B6AB3F1404FC0
:1052780009D3484BDB6823F01F027B681B6A45494A
:105288001343CB6028E07B685B6A002B0ADA414B4A
:10529800DB6823F478727B681B6A5B013D49134322
:1052A800CB6019E07B685B6AB3F1804F0AD3394B56
:1052B800DB6823F4F8427B681B6A9B023549134379
:1052C800CB6009E0334BDB6823F478227B681B6AE8
:1052D800DB0330491343CB603B6B002B0AD17B685F
:1052E8005B6A184601F03CF90346002B02D0012303
:1052F80000F0E5BD01F0DEF8274B1B681846FEF705
:1053080025FA034687F8273097F82730002B00F056
:105318008A8097F8273000F0D2BD7B68DB69002BC4
:1053280066D01C4B1B681B4A43F001031360FEF751
:1053380097FAB86209E0FEF793FA0246BB6AD31AF5
:10534800022B02D9032300F0BABD124B1B6803F0ED
:105358000403002BEFD00F4B9B680E4A43F4000365
:1053680093600C4B9B6823F070427B685B6A094929
:1053780013438B607B685B6AB3F1404F0ED3054BD8
:10538800DB6823F01F027B681B6A02491343CB606A
:105398004AE000BF000C0246600A00207B685B6A96
:1053A800002B0ADA984BDB6823F478727B681B6A57
:1053B8005B0195491343CB6036E07B685B6AB3F1C8
:1053C800804F0AD3904BDB6823F4F8427B681B6A52
:1053D8009B028D491343CB6026E08B4BDB6823F49B
:1053E80078227B681B6ADB0387491343CB601BE089
:1053F800854B1B68844A23F001031360FEF730FADB
:10540800B86209E0FEF72CFA0246BB6AD31A022BEF
:1054180002D9032300F053BD7B4B1B6803F0040340
:10542800002BEFD100E000BF7B681B6803F001038D
:10543800002B00F08B803B6B082B05D03B6B0C2BB3
:1054480009D1FB6A032B06D17B685B68002B7DD1F1
:10545800012300F034BD7B685B68B3F5803F06D15B
:10546800694B1B68684A43F48033136041E07B68EA
:105478005B68B3F5A02F12D1634B1B68624A43F4F3
:1054880080231360604B1B685F4A23F4801313600A
:105498005D4B1B685C4A43F48033136029E07B68EA
:1054A8005B68B3F5A81F12D1574B1B68564A43F4E3
:1054B80080231360544B1B68534A43F480131360D2
:1054C800514B1B68504A43F48033136011E04E4B34
:1054D8001B684D4A23F4803313604B4B1B684A4AC0
:1054E80023F480231360484B1B68474A23F4801336
:1054F80013607B685B68002B14D0FEF7B1F9B862C3
:1055080009E0FEF7ADF90246BB6AD31A642B02D94B
:10551800032300F0D4BC3C4B1B6803F40033002B7E
:10552800EFD013E0FEF79CF9B86209E0FEF798F9AE
:105538000246BB6AD31A642B02D9032300F0BFBC0E
:10554800314B1B6803F40033002BEFD17B681B68D9
:1055580003F00203002B5FD03B6B042B05D03B6BA1
:105568000C2B14D1FB6A022B11D17B68DB68002B52
:1055780002D1012300F0A3BC234B1B6923F4F812CA
:105588007B681B691B04204913430B6144E07B685B
:10559800DB68002B24D01C4B1B681B4A43F4807328
:1055A8001360FEF75DF9B86209E0FEF759F90246A3
:1055B800BB6AD31A022B02D9032300F080BC124B1A
:1055C8001B6803F48063002BEFD00F4B1B6923F497
:1055D800F8127B681B691B040B4913430B611BE022
:1055E800094B1B68084A23F480731360FEF738F9E7
:1055F800B8620BE0FEF734F90246BB6AD31A022BF5
:1056080004D9032300F05BBC000C0246AF4B1B68B7
:1056180003F48063002BEDD17B681B6803F008035B
:10562800002B00F0C880002387F83630A74BD3F84A
:10563800943003F00403002B11D1A44BD3F8943019
:10564800A24A43F00403C2F89430A04BD3F8943034
:1056580003F004037B617B69012387F836309C4B98
:105668009B6A03F00103002B19D1994B9B6A984A56
:1056780043F001039362FEF7F3F8B86209E0FEF71E
:10568800EFF80246BB6AD31A022B02D9032300F0B3
:1056980016BC8F4B9B6A03F00103002BEFD07B688D
:1056A8005B69002B5FD0894BD3F8F0303B627B6895
:1056B8009A693B6A03F080539A4237D03B6A03F0F9
:1056C8000063002B06D03B6A03F08063002B01D1F6
:1056D8000123F4E33B6A03F08063002B1BD07B4B70
:1056E800D3F8F030794A23F0A053C2F8F030FEF72F
:1056F800B7F8B86208E0FEF7B3F80246BB6AD31AF7
:10570800052B01D90323DAE3704BD3F8F03003F00B
:105718000063002BEFD16D4BD3F8F03023F08052AB
:105728007B689B6969491343C1F8F030674BD3F82C
:10573800F030664A43F08063C2F8F030FEF790F824
:10574800B86208E0FEF78CF80246BB6AD31A052B4C
:1057580001D90323B3E35D4BD3F8F03003F00063C2
:10576800002BEFD01BE0594BD3F8F030574A23F009
:10577800A053C2F8F030FEF773F8B86208E0FEF7FD
:105788006FF80246BB6AD31A052B01D9032396E3A7
:105798004E4BD3F8F03003F00063002BEFD197F8AD
:1057A8003630012B07D1494BD3F89430474A23F0C0
:1057B8000403C2F894307B681B6803F00403002BD1
:1057C80000F01181002387F83530404BD3F894302E
:1057D80003F00403002B11D13C4BD3F894303B4A1F
:1057E80043F00403C2F89430384BD3F8943003F0F4
:1057F80004033B613B69012387F83530344B9B6ACE
:1058080003F00103002B18D1314B9B6A304A43F057
:1058180001039362FEF724F8B86208E0FEF720F867
:105828000246BB6AD31A022B01D9032347E3284B4C
:105838009B6A03F00103002BF0D07B689B6803F0A0
:105848000103002B1FD07B689B6803F00403002B27
:1058580010D01E4BD3F8F0301C4A43F00403C2F8B2
:10586800F0301A4BD3F8F030184A43F00103C2F86D
:10587800F03018E0154BD3F8F030144A43F0010328
:10588800C2F8F0300FE0114BD3F8F0300F4A23F094
:105898000103C2F8F0300D4BD3F8F0300B4A23F077
:1058A8000403C2F8F0307B689B68002B57D0FDF7E3
:1058B800D7FFB8620EE0FDF7D3FF0246BB6AD31AE2
:1058C80041F28832934205D90323F8E2000C0246DC
:1058D800000802469C4BD3F8F03003F00203002B7B
:1058E800E9D07B689B6803F08003002B1BD0964BA4
:1058F800D3F8F030944A43F08003C2F8F0300AE05D
:10590800FDF7AEFF0246BB6AD31A41F288329342D2
:1059180001D90323D3E28C4BD3F8F03003F40063AE
:10592800002BEDD053E0884BD3F8F030864A23F0B3
:105938008003C2F8F0300AE0FDF792FF0246BB6A26
:10594800D31A41F28832934201D90323B7E27E4B3E
:10595800D3F8F03003F40063002BEDD137E0FDF706
:105968007FFFB8620AE0FDF77BFF0246BB6AD31AE5
:1059780041F28832934201D90323A0E2724BD3F853
:10598800F03003F00203002BEDD16F4BD3F8F03069
:1059980003F08003002B1AD06B4BD3F8F0306A4A1F
:1059A80023F08003C2F8F0300AE0FDF759FF024601
:1059B800BB6AD31A41F28832934201D903237EE2AB
:1059C800614BD3F8F03003F40063002BEDD197F866
:1059D8003530012B07D15C4BD3F894305A4A23F069
:1059E8000403C2F894307B681B6803F02003002B83
:1059F80036D07B68DB6A002B19D0534B1B68524AA0
:105A080043F480531360FDF72BFFB86208E0FDF7FD
:105A180027FF0246BB6AD31A022B01D903234EE2A1
:105A2800494B1B6803F40053002BF0D018E0464B99
:105A38001B68454A23F480531360FDF711FFB862D1
:105A480008E0FDF70DFF0246BB6AD31A022B01D905
:105A5800032334E23C4B1B6803F40053002BF0D1C2
:105A68007B681B6803F08003002B36D07B681B6BB8
:105A7800002B19D0344B1B68334A43F4804313601E
:105A8800FDF7EEFEB86208E0FDF7EAFE0246BB6AE3
:105A9800D31A022B01D9032311E22B4B1B6803F401
:105AA8000043002BF0D018E0274B1B68264A23F44C
:105AB80080431360FDF7D4FEB86208E0FDF7D0FE1E
:105AC8000246BB6AD31A022B01D90323F7E11E4B06
